{
	"apps/Lottery/lottery-dapp/blockchain/contracts/Lottery.sol": {
		"Lottery": {
			"abi": [
				{
					"inputs": [],
					"stateMutability": "nonpayable",
					"type": "constructor"
				},
				{
					"inputs": [],
					"name": "enter",
					"outputs": [],
					"stateMutability": "payable",
					"type": "function"
				},
				{
					"inputs": [],
					"name": "getBalance",
					"outputs": [
						{
							"internalType": "uint256",
							"name": "",
							"type": "uint256"
						}
					],
					"stateMutability": "view",
					"type": "function"
				},
				{
					"inputs": [],
					"name": "getPlayers",
					"outputs": [
						{
							"internalType": "address payable[]",
							"name": "",
							"type": "address[]"
						}
					],
					"stateMutability": "view",
					"type": "function"
				},
				{
					"inputs": [],
					"name": "getRandomNumber",
					"outputs": [
						{
							"internalType": "bytes32",
							"name": "requestId",
							"type": "bytes32"
						}
					],
					"stateMutability": "nonpayable",
					"type": "function"
				},
				{
					"inputs": [
						{
							"internalType": "uint256",
							"name": "lottery",
							"type": "uint256"
						}
					],
					"name": "getWinnerByLottery",
					"outputs": [
						{
							"internalType": "address payable",
							"name": "",
							"type": "address"
						}
					],
					"stateMutability": "view",
					"type": "function"
				},
				{
					"inputs": [
						{
							"internalType": "uint256",
							"name": "",
							"type": "uint256"
						}
					],
					"name": "lotteryHistory",
					"outputs": [
						{
							"internalType": "address payable",
							"name": "",
							"type": "address"
						}
					],
					"stateMutability": "view",
					"type": "function"
				},
				{
					"inputs": [],
					"name": "lotteryId",
					"outputs": [
						{
							"internalType": "uint256",
							"name": "",
							"type": "uint256"
						}
					],
					"stateMutability": "view",
					"type": "function"
				},
				{
					"inputs": [],
					"name": "owner",
					"outputs": [
						{
							"internalType": "address",
							"name": "",
							"type": "address"
						}
					],
					"stateMutability": "view",
					"type": "function"
				},
				{
					"inputs": [],
					"name": "payWinner",
					"outputs": [],
					"stateMutability": "nonpayable",
					"type": "function"
				},
				{
					"inputs": [],
					"name": "pickWinner",
					"outputs": [],
					"stateMutability": "nonpayable",
					"type": "function"
				},
				{
					"inputs": [
						{
							"internalType": "uint256",
							"name": "",
							"type": "uint256"
						}
					],
					"name": "players",
					"outputs": [
						{
							"internalType": "address payable",
							"name": "",
							"type": "address"
						}
					],
					"stateMutability": "view",
					"type": "function"
				},
				{
					"inputs": [],
					"name": "randomResult",
					"outputs": [
						{
							"internalType": "uint256",
							"name": "",
							"type": "uint256"
						}
					],
					"stateMutability": "view",
					"type": "function"
				},
				{
					"inputs": [
						{
							"internalType": "bytes32",
							"name": "requestId",
							"type": "bytes32"
						},
						{
							"internalType": "uint256",
							"name": "randomness",
							"type": "uint256"
						}
					],
					"name": "rawFulfillRandomness",
					"outputs": [],
					"stateMutability": "nonpayable",
					"type": "function"
				}
			],
			"devdoc": {
				"kind": "dev",
				"methods": {},
				"version": 1
			},
			"evm": {
				"assembly": "    /* \"apps/Lottery/lottery-dapp/blockchain/contracts/Lottery.sol\":202:2705  contract Lottery is VRFConsumerBase {... */\n  mstore(0x40, 0xc0)\n    /* \"apps/Lottery/lottery-dapp/blockchain/contracts/Lottery.sol\":574:1014  constructor()... */\n  callvalue\n  dup1\n  iszero\n  tag_1\n  jumpi\n  0x00\n  dup1\n  revert\ntag_1:\n  pop\n    /* \"apps/Lottery/lottery-dapp/blockchain/contracts/Lottery.sol\":627:669  0x271682DEB8C4E0901D1a1550aD2e64D568E69909 */\n  0x271682deb8c4e0901d1a1550ad2e64d568e69909\n    /* \"apps/Lottery/lottery-dapp/blockchain/contracts/Lottery.sol\":703:745  0x326C977E6efc84E512bB9C30f76E30c160eD06FB */\n  0x326c977e6efc84e512bb9c30f76e30c160ed06fb\n    /* \"@chainlink/contracts/src/v0.8/VRFConsumerBase.sol\":9323:9338  _vrfCoordinator */\n  dup2\n    /* \"@chainlink/contracts/src/v0.8/VRFConsumerBase.sol\":9306:9338  vrfCoordinator = _vrfCoordinator */\n  0xffffffffffffffffffffffffffffffffffffffff\n  and\n  0xa0\n  dup2\n  0xffffffffffffffffffffffffffffffffffffffff\n  and\n  dup2\n  mstore\n  pop\n  pop\n    /* \"@chainlink/contracts/src/v0.8/VRFConsumerBase.sol\":9370:9375  _link */\n  dup1\n    /* \"@chainlink/contracts/src/v0.8/VRFConsumerBase.sol\":9344:9376  LINK = LinkTokenInterface(_link) */\n  0xffffffffffffffffffffffffffffffffffffffff\n  and\n  0x80\n  dup2\n  0xffffffffffffffffffffffffffffffffffffffff\n  and\n  dup2\n  mstore\n  pop\n  pop\n    /* \"@chainlink/contracts/src/v0.8/VRFConsumerBase.sol\":9248:9381  constructor(address _vrfCoordinator, address _link) {... */\n  pop\n  pop\n    /* \"apps/Lottery/lottery-dapp/blockchain/contracts/Lottery.sol\":805:871  0x8af398995b04c28e9951adb9721ef74c74f93e6a478f39e7e0777be13527e7ef */\n  0x8af398995b04c28e9951adb9721ef74c74f93e6a478f39e7e0777be13527e7ef\n    /* \"apps/Lottery/lottery-dapp/blockchain/contracts/Lottery.sol\":795:871  keyHash = 0x8af398995b04c28e9951adb9721ef74c74f93e6a478f39e7e0777be13527e7ef */\n  0x00\n  shl\n    /* \"apps/Lottery/lottery-dapp/blockchain/contracts/Lottery.sol\":795:802  keyHash */\n  0x05\n    /* \"apps/Lottery/lottery-dapp/blockchain/contracts/Lottery.sol\":795:871  keyHash = 0x8af398995b04c28e9951adb9721ef74c74f93e6a478f39e7e0777be13527e7ef */\n  dup2\n  swap1\n  sstore\n  pop\n    /* \"apps/Lottery/lottery-dapp/blockchain/contracts/Lottery.sol\":888:900  0.1 * 10**18 */\n  0x016345785d8a0000\n    /* \"apps/Lottery/lottery-dapp/blockchain/contracts/Lottery.sol\":882:885  fee */\n  0x06\n    /* \"apps/Lottery/lottery-dapp/blockchain/contracts/Lottery.sol\":882:900  fee = 0.1 * 10**18 */\n  dup2\n  swap1\n  sstore\n  pop\n    /* \"apps/Lottery/lottery-dapp/blockchain/contracts/Lottery.sol\":933:943  msg.sender */\n  caller\n    /* \"apps/Lottery/lottery-dapp/blockchain/contracts/Lottery.sol\":925:930  owner */\n  0x01\n  0x00\n    /* \"apps/Lottery/lottery-dapp/blockchain/contracts/Lottery.sol\":925:943  owner = msg.sender */\n  0x0100\n  exp\n  dup2\n  sload\n  dup2\n  0xffffffffffffffffffffffffffffffffffffffff\n  mul\n  not\n  and\n  swap1\n  dup4\n  0xffffffffffffffffffffffffffffffffffffffff\n  and\n  mul\n  or\n  swap1\n  sstore\n  pop\n    /* \"apps/Lottery/lottery-dapp/blockchain/contracts/Lottery.sol\":966:968  10 */\n  0x0a\n    /* \"apps/Lottery/lottery-dapp/blockchain/contracts/Lottery.sol\":954:963  lotteryId */\n  0x03\n    /* \"apps/Lottery/lottery-dapp/blockchain/contracts/Lottery.sol\":954:968  lotteryId = 10 */\n  dup2\n  swap1\n  sstore\n  pop\n    /* \"apps/Lottery/lottery-dapp/blockchain/contracts/Lottery.sol\":202:2705  contract Lottery is VRFConsumerBase {... */\n  mload(0x80)\n  mload(0xa0)\n  codecopy(0x00, dataOffset(sub_0), dataSize(sub_0))\n  0x00\n  assignImmutable(\"0x6dbb33232cde86c8a04f90a8bed9fc1c5ef520188a14538d96eb100d69bc2a94\")\n  0x00\n  assignImmutable(\"0xb2219b801710730437d0358146c829b62297a059eceaa0b40b27aea2daecf595\")\n  return(0x00, dataSize(sub_0))\nstop\n\nsub_0: assembly {\n        /* \"apps/Lottery/lottery-dapp/blockchain/contracts/Lottery.sol\":202:2705  contract Lottery is VRFConsumerBase {... */\n      mstore(0x40, 0x80)\n      jumpi(tag_1, lt(calldatasize, 0x04))\n      shr(0xe0, calldataload(0x00))\n      dup1\n      0x8da5cb5b\n      gt\n      tag_15\n      jumpi\n      dup1\n      0xdbdff2c1\n      gt\n      tag_16\n      jumpi\n      dup1\n      0xdbdff2c1\n      eq\n      tag_11\n      jumpi\n      dup1\n      0xe580f47b\n      eq\n      tag_12\n      jumpi\n      dup1\n      0xe97dcb62\n      eq\n      tag_13\n      jumpi\n      dup1\n      0xf71d96cb\n      eq\n      tag_14\n      jumpi\n      jump(tag_1)\n    tag_16:\n      dup1\n      0x8da5cb5b\n      eq\n      tag_8\n      jumpi\n      dup1\n      0x94985ddd\n      eq\n      tag_9\n      jumpi\n      dup1\n      0xbe71248a\n      eq\n      tag_10\n      jumpi\n      jump(tag_1)\n    tag_15:\n      dup1\n      0x12065fe0\n      eq\n      tag_2\n      jumpi\n      dup1\n      0x281d098d\n      eq\n      tag_3\n      jumpi\n      dup1\n      0x42619f66\n      eq\n      tag_4\n      jumpi\n      dup1\n      0x5d495aea\n      eq\n      tag_5\n      jumpi\n      dup1\n      0x6d6fe230\n      eq\n      tag_6\n      jumpi\n      dup1\n      0x8b5b9ccc\n      eq\n      tag_7\n      jumpi\n    tag_1:\n      0x00\n      dup1\n      revert\n        /* \"apps/Lottery/lottery-dapp/blockchain/contracts/Lottery.sol\":1604:1703  function getBalance() public view returns (uint256) {... */\n    tag_2:\n      callvalue\n      dup1\n      iszero\n      tag_17\n      jumpi\n      0x00\n      dup1\n      revert\n    tag_17:\n      pop\n      tag_18\n      tag_19\n      jump\t// in\n    tag_18:\n      mload(0x40)\n      tag_20\n      swap2\n      swap1\n      tag_21\n      jump\t// in\n    tag_20:\n      mload(0x40)\n      dup1\n      swap2\n      sub\n      swap1\n      return\n        /* \"apps/Lottery/lottery-dapp/blockchain/contracts/Lottery.sol\":1432:1596  function getWinnerByLottery(uint256 lottery)... */\n    tag_3:\n      callvalue\n      dup1\n      iszero\n      tag_22\n      jumpi\n      0x00\n      dup1\n      revert\n    tag_22:\n      pop\n      tag_23\n      0x04\n      dup1\n      calldatasize\n      sub\n      dup2\n      add\n      swap1\n      tag_24\n      swap2\n      swap1\n      tag_25\n      jump\t// in\n    tag_24:\n      tag_26\n      jump\t// in\n    tag_23:\n      mload(0x40)\n      tag_27\n      swap2\n      swap1\n      tag_28\n      jump\t// in\n    tag_27:\n      mload(0x40)\n      dup1\n      swap2\n      sub\n      swap1\n      return\n        /* \"apps/Lottery/lottery-dapp/blockchain/contracts/Lottery.sol\":538:565  uint256 public randomResult */\n    tag_4:\n      callvalue\n      dup1\n      iszero\n      tag_29\n      jumpi\n      0x00\n      dup1\n      revert\n    tag_29:\n      pop\n      tag_30\n      tag_31\n      jump\t// in\n    tag_30:\n      mload(0x40)\n      tag_32\n      swap2\n      swap1\n      tag_21\n      jump\t// in\n    tag_32:\n      mload(0x40)\n      dup1\n      swap2\n      sub\n      swap1\n      return\n        /* \"apps/Lottery/lottery-dapp/blockchain/contracts/Lottery.sol\":2003:2078  function pickWinner() public onlyowner {... */\n    tag_5:\n      callvalue\n      dup1\n      iszero\n      tag_33\n      jumpi\n      0x00\n      dup1\n      revert\n    tag_33:\n      pop\n      tag_34\n      tag_35\n      jump\t// in\n    tag_34:\n      stop\n        /* \"apps/Lottery/lottery-dapp/blockchain/contracts/Lottery.sol\":342:399  mapping(uint256 => address payable) public lotteryHistory */\n    tag_6:\n      callvalue\n      dup1\n      iszero\n      tag_36\n      jumpi\n      0x00\n      dup1\n      revert\n    tag_36:\n      pop\n      tag_37\n      0x04\n      dup1\n      calldatasize\n      sub\n      dup2\n      add\n      swap1\n      tag_38\n      swap2\n      swap1\n      tag_25\n      jump\t// in\n    tag_38:\n      tag_39\n      jump\t// in\n    tag_37:\n      mload(0x40)\n      tag_40\n      swap2\n      swap1\n      tag_28\n      jump\t// in\n    tag_40:\n      mload(0x40)\n      dup1\n      swap2\n      sub\n      swap1\n      return\n        /* \"apps/Lottery/lottery-dapp/blockchain/contracts/Lottery.sol\":1711:1813  function getPlayers() public view returns (address payable[] memory) {... */\n    tag_7:\n      callvalue\n      dup1\n      iszero\n      tag_41\n      jumpi\n      0x00\n      dup1\n      revert\n    tag_41:\n      pop\n      tag_42\n      tag_43\n      jump\t// in\n    tag_42:\n      mload(0x40)\n      tag_44\n      swap2\n      swap1\n      tag_45\n      jump\t// in\n    tag_44:\n      mload(0x40)\n      dup1\n      swap2\n      sub\n      swap1\n      return\n        /* \"apps/Lottery/lottery-dapp/blockchain/contracts/Lottery.sol\":245:265  address public owner */\n    tag_8:\n      callvalue\n      dup1\n      iszero\n      tag_46\n      jumpi\n      0x00\n      dup1\n      revert\n    tag_46:\n      pop\n      tag_47\n      tag_48\n      jump\t// in\n    tag_47:\n      mload(0x40)\n      tag_49\n      swap2\n      swap1\n      tag_50\n      jump\t// in\n    tag_49:\n      mload(0x40)\n      dup1\n      swap2\n      sub\n      swap1\n      return\n        /* \"@chainlink/contracts/src/v0.8/VRFConsumerBase.sol\":9576:9783  function rawFulfillRandomness(bytes32 requestId, uint256 randomness) external {... */\n    tag_9:\n      callvalue\n      dup1\n      iszero\n      tag_51\n      jumpi\n      0x00\n      dup1\n      revert\n    tag_51:\n      pop\n      tag_52\n      0x04\n      dup1\n      calldatasize\n      sub\n      dup2\n      add\n      swap1\n      tag_53\n      swap2\n      swap1\n      tag_54\n      jump\t// in\n    tag_53:\n      tag_55\n      jump\t// in\n    tag_52:\n      stop\n        /* \"apps/Lottery/lottery-dapp/blockchain/contracts/Lottery.sol\":2086:2614  function payWinner() public {... */\n    tag_10:\n      callvalue\n      dup1\n      iszero\n      tag_56\n      jumpi\n      0x00\n      dup1\n      revert\n    tag_56:\n      pop\n      tag_57\n      tag_58\n      jump\t// in\n    tag_57:\n      stop\n        /* \"apps/Lottery/lottery-dapp/blockchain/contracts/Lottery.sol\":1022:1265  function getRandomNumber() public returns (bytes32 requestId) {... */\n    tag_11:\n      callvalue\n      dup1\n      iszero\n      tag_59\n      jumpi\n      0x00\n      dup1\n      revert\n    tag_59:\n      pop\n      tag_60\n      tag_61\n      jump\t// in\n    tag_60:\n      mload(0x40)\n      tag_62\n      swap2\n      swap1\n      tag_63\n      jump\t// in\n    tag_62:\n      mload(0x40)\n      dup1\n      swap2\n      sub\n      swap1\n      return\n        /* \"apps/Lottery/lottery-dapp/blockchain/contracts/Lottery.sol\":311:335  uint256 public lotteryId */\n    tag_12:\n      callvalue\n      dup1\n      iszero\n      tag_64\n      jumpi\n      0x00\n      dup1\n      revert\n    tag_64:\n      pop\n      tag_65\n      tag_66\n      jump\t// in\n    tag_65:\n      mload(0x40)\n      tag_67\n      swap2\n      swap1\n      tag_21\n      jump\t// in\n    tag_67:\n      mload(0x40)\n      dup1\n      swap2\n      sub\n      swap1\n      return\n        /* \"apps/Lottery/lottery-dapp/blockchain/contracts/Lottery.sol\":1821:1995  function enter() public payable {... */\n    tag_13:\n      tag_68\n      tag_69\n      jump\t// in\n    tag_68:\n      stop\n        /* \"apps/Lottery/lottery-dapp/blockchain/contracts/Lottery.sol\":272:304  address payable[] public players */\n    tag_14:\n      callvalue\n      dup1\n      iszero\n      tag_70\n      jumpi\n      0x00\n      dup1\n      revert\n    tag_70:\n      pop\n      tag_71\n      0x04\n      dup1\n      calldatasize\n      sub\n      dup2\n      add\n      swap1\n      tag_72\n      swap2\n      swap1\n      tag_25\n      jump\t// in\n    tag_72:\n      tag_73\n      jump\t// in\n    tag_71:\n      mload(0x40)\n      tag_74\n      swap2\n      swap1\n      tag_28\n      jump\t// in\n    tag_74:\n      mload(0x40)\n      dup1\n      swap2\n      sub\n      swap1\n      return\n        /* \"apps/Lottery/lottery-dapp/blockchain/contracts/Lottery.sol\":1604:1703  function getBalance() public view returns (uint256) {... */\n    tag_19:\n        /* \"apps/Lottery/lottery-dapp/blockchain/contracts/Lottery.sol\":1647:1654  uint256 */\n      0x00\n        /* \"apps/Lottery/lottery-dapp/blockchain/contracts/Lottery.sol\":1674:1695  address(this).balance */\n      selfbalance\n        /* \"apps/Lottery/lottery-dapp/blockchain/contracts/Lottery.sol\":1667:1695  return address(this).balance */\n      swap1\n      pop\n        /* \"apps/Lottery/lottery-dapp/blockchain/contracts/Lottery.sol\":1604:1703  function getBalance() public view returns (uint256) {... */\n      swap1\n      jump\t// out\n        /* \"apps/Lottery/lottery-dapp/blockchain/contracts/Lottery.sol\":1432:1596  function getWinnerByLottery(uint256 lottery)... */\n    tag_26:\n        /* \"apps/Lottery/lottery-dapp/blockchain/contracts/Lottery.sol\":1525:1540  address payable */\n      0x00\n        /* \"apps/Lottery/lottery-dapp/blockchain/contracts/Lottery.sol\":1565:1579  lotteryHistory */\n      0x04\n        /* \"apps/Lottery/lottery-dapp/blockchain/contracts/Lottery.sol\":1565:1588  lotteryHistory[lottery] */\n      0x00\n        /* \"apps/Lottery/lottery-dapp/blockchain/contracts/Lottery.sol\":1580:1587  lottery */\n      dup4\n        /* \"apps/Lottery/lottery-dapp/blockchain/contracts/Lottery.sol\":1565:1588  lotteryHistory[lottery] */\n      dup2\n      mstore\n      0x20\n      add\n      swap1\n      dup2\n      mstore\n      0x20\n      add\n      0x00\n      keccak256\n      0x00\n      swap1\n      sload\n      swap1\n      0x0100\n      exp\n      swap1\n      div\n      0xffffffffffffffffffffffffffffffffffffffff\n      and\n        /* \"apps/Lottery/lottery-dapp/blockchain/contracts/Lottery.sol\":1558:1588  return lotteryHistory[lottery] */\n      swap1\n      pop\n        /* \"apps/Lottery/lottery-dapp/blockchain/contracts/Lottery.sol\":1432:1596  function getWinnerByLottery(uint256 lottery)... */\n      swap2\n      swap1\n      pop\n      jump\t// out\n        /* \"apps/Lottery/lottery-dapp/blockchain/contracts/Lottery.sol\":538:565  uint256 public randomResult */\n    tag_31:\n      sload(0x07)\n      dup2\n      jump\t// out\n        /* \"apps/Lottery/lottery-dapp/blockchain/contracts/Lottery.sol\":2003:2078  function pickWinner() public onlyowner {... */\n    tag_35:\n        /* \"apps/Lottery/lottery-dapp/blockchain/contracts/Lottery.sol\":2676:2681  owner */\n      0x01\n      0x00\n      swap1\n      sload\n      swap1\n      0x0100\n      exp\n      swap1\n      div\n      0xffffffffffffffffffffffffffffffffffffffff\n      and\n        /* \"apps/Lottery/lottery-dapp/blockchain/contracts/Lottery.sol\":2662:2681  msg.sender == owner */\n      0xffffffffffffffffffffffffffffffffffffffff\n      and\n        /* \"apps/Lottery/lottery-dapp/blockchain/contracts/Lottery.sol\":2662:2672  msg.sender */\n      caller\n        /* \"apps/Lottery/lottery-dapp/blockchain/contracts/Lottery.sol\":2662:2681  msg.sender == owner */\n      0xffffffffffffffffffffffffffffffffffffffff\n      and\n      eq\n        /* \"apps/Lottery/lottery-dapp/blockchain/contracts/Lottery.sol\":2654:2682  require(msg.sender == owner) */\n      tag_78\n      jumpi\n      0x00\n      dup1\n      revert\n    tag_78:\n        /* \"apps/Lottery/lottery-dapp/blockchain/contracts/Lottery.sol\":2053:2070  getRandomNumber() */\n      tag_80\n        /* \"apps/Lottery/lottery-dapp/blockchain/contracts/Lottery.sol\":2053:2068  getRandomNumber */\n      tag_61\n        /* \"apps/Lottery/lottery-dapp/blockchain/contracts/Lottery.sol\":2053:2070  getRandomNumber() */\n      jump\t// in\n    tag_80:\n      pop\n        /* \"apps/Lottery/lottery-dapp/blockchain/contracts/Lottery.sol\":2003:2078  function pickWinner() public onlyowner {... */\n      jump\t// out\n        /* \"apps/Lottery/lottery-dapp/blockchain/contracts/Lottery.sol\":342:399  mapping(uint256 => address payable) public lotteryHistory */\n    tag_39:\n      mstore(0x20, 0x04)\n      dup1\n      0x00\n      mstore\n      keccak256(0x00, 0x40)\n      0x00\n      swap2\n      pop\n      sload\n      swap1\n      0x0100\n      exp\n      swap1\n      div\n      0xffffffffffffffffffffffffffffffffffffffff\n      and\n      dup2\n      jump\t// out\n        /* \"apps/Lottery/lottery-dapp/blockchain/contracts/Lottery.sol\":1711:1813  function getPlayers() public view returns (address payable[] memory) {... */\n    tag_43:\n        /* \"apps/Lottery/lottery-dapp/blockchain/contracts/Lottery.sol\":1754:1778  address payable[] memory */\n      0x60\n        /* \"apps/Lottery/lottery-dapp/blockchain/contracts/Lottery.sol\":1798:1805  players */\n      0x02\n        /* \"apps/Lottery/lottery-dapp/blockchain/contracts/Lottery.sol\":1791:1805  return players */\n      dup1\n      sload\n      dup1\n      0x20\n      mul\n      0x20\n      add\n      mload(0x40)\n      swap1\n      dup2\n      add\n      0x40\n      mstore\n      dup1\n      swap3\n      swap2\n      swap1\n      dup2\n      dup2\n      mstore\n      0x20\n      add\n      dup3\n      dup1\n      sload\n      dup1\n      iszero\n      tag_82\n      jumpi\n      0x20\n      mul\n      dup3\n      add\n      swap2\n      swap1\n      0x00\n      mstore\n      keccak256(0x00, 0x20)\n      swap1\n    tag_83:\n      dup2\n      0x00\n      swap1\n      sload\n      swap1\n      0x0100\n      exp\n      swap1\n      div\n      0xffffffffffffffffffffffffffffffffffffffff\n      and\n      0xffffffffffffffffffffffffffffffffffffffff\n      and\n      dup2\n      mstore\n      0x20\n      add\n      swap1\n      0x01\n      add\n      swap1\n      dup1\n      dup4\n      gt\n      tag_83\n      jumpi\n    tag_82:\n      pop\n      pop\n      pop\n      pop\n      pop\n      swap1\n      pop\n        /* \"apps/Lottery/lottery-dapp/blockchain/contracts/Lottery.sol\":1711:1813  function getPlayers() public view returns (address payable[] memory) {... */\n      swap1\n      jump\t// out\n        /* \"apps/Lottery/lottery-dapp/blockchain/contracts/Lottery.sol\":245:265  address public owner */\n    tag_48:\n      0x01\n      0x00\n      swap1\n      sload\n      swap1\n      0x0100\n      exp\n      swap1\n      div\n      0xffffffffffffffffffffffffffffffffffffffff\n      and\n      dup2\n      jump\t// out\n        /* \"@chainlink/contracts/src/v0.8/VRFConsumerBase.sol\":9576:9783  function rawFulfillRandomness(bytes32 requestId, uint256 randomness) external {... */\n    tag_55:\n        /* \"@chainlink/contracts/src/v0.8/VRFConsumerBase.sol\":9682:9696  vrfCoordinator */\n      immutable(\"0x6dbb33232cde86c8a04f90a8bed9fc1c5ef520188a14538d96eb100d69bc2a94\")\n        /* \"@chainlink/contracts/src/v0.8/VRFConsumerBase.sol\":9668:9696  msg.sender == vrfCoordinator */\n      0xffffffffffffffffffffffffffffffffffffffff\n      and\n        /* \"@chainlink/contracts/src/v0.8/VRFConsumerBase.sol\":9668:9678  msg.sender */\n      caller\n        /* \"@chainlink/contracts/src/v0.8/VRFConsumerBase.sol\":9668:9696  msg.sender == vrfCoordinator */\n      0xffffffffffffffffffffffffffffffffffffffff\n      and\n      eq\n        /* \"@chainlink/contracts/src/v0.8/VRFConsumerBase.sol\":9660:9732  require(msg.sender == vrfCoordinator, \"Only VRFCoordinator can fulfill\") */\n      tag_85\n      jumpi\n      mload(0x40)\n      0x08c379a000000000000000000000000000000000000000000000000000000000\n      dup2\n      mstore\n      0x04\n      add\n      tag_86\n      swap1\n      tag_87\n      jump\t// in\n    tag_86:\n      mload(0x40)\n      dup1\n      swap2\n      sub\n      swap1\n      revert\n    tag_85:\n        /* \"@chainlink/contracts/src/v0.8/VRFConsumerBase.sol\":9738:9778  fulfillRandomness(requestId, randomness) */\n      tag_88\n        /* \"@chainlink/contracts/src/v0.8/VRFConsumerBase.sol\":9756:9765  requestId */\n      dup3\n        /* \"@chainlink/contracts/src/v0.8/VRFConsumerBase.sol\":9767:9777  randomness */\n      dup3\n        /* \"@chainlink/contracts/src/v0.8/VRFConsumerBase.sol\":9738:9755  fulfillRandomness */\n      tag_89\n        /* \"@chainlink/contracts/src/v0.8/VRFConsumerBase.sol\":9738:9778  fulfillRandomness(requestId, randomness) */\n      jump\t// in\n    tag_88:\n        /* \"@chainlink/contracts/src/v0.8/VRFConsumerBase.sol\":9576:9783  function rawFulfillRandomness(bytes32 requestId, uint256 randomness) external {... */\n      pop\n      pop\n      jump\t// out\n        /* \"apps/Lottery/lottery-dapp/blockchain/contracts/Lottery.sol\":2086:2614  function payWinner() public {... */\n    tag_58:\n        /* \"apps/Lottery/lottery-dapp/blockchain/contracts/Lottery.sol\":2162:2163  0 */\n      0x00\n        /* \"apps/Lottery/lottery-dapp/blockchain/contracts/Lottery.sol\":2147:2159  randomResult */\n      sload(0x07)\n        /* \"apps/Lottery/lottery-dapp/blockchain/contracts/Lottery.sol\":2147:2163  randomResult > 0 */\n      gt\n        /* \"apps/Lottery/lottery-dapp/blockchain/contracts/Lottery.sol\":2125:2246  require(... */\n      tag_91\n      jumpi\n      mload(0x40)\n      0x08c379a000000000000000000000000000000000000000000000000000000000\n      dup2\n      mstore\n      0x04\n      add\n      tag_92\n      swap1\n      tag_93\n      jump\t// in\n    tag_92:\n      mload(0x40)\n      dup1\n      swap2\n      sub\n      swap1\n      revert\n    tag_91:\n        /* \"apps/Lottery/lottery-dapp/blockchain/contracts/Lottery.sol\":2257:2270  uint256 index */\n      0x00\n        /* \"apps/Lottery/lottery-dapp/blockchain/contracts/Lottery.sol\":2288:2295  players */\n      0x02\n        /* \"apps/Lottery/lottery-dapp/blockchain/contracts/Lottery.sol\":2288:2302  players.length */\n      dup1\n      sload\n      swap1\n      pop\n        /* \"apps/Lottery/lottery-dapp/blockchain/contracts/Lottery.sol\":2273:2285  randomResult */\n      sload(0x07)\n        /* \"apps/Lottery/lottery-dapp/blockchain/contracts/Lottery.sol\":2273:2302  randomResult % players.length */\n      tag_94\n      swap2\n      swap1\n      tag_95\n      jump\t// in\n    tag_94:\n        /* \"apps/Lottery/lottery-dapp/blockchain/contracts/Lottery.sol\":2257:2302  uint256 index = randomResult % players.length */\n      swap1\n      pop\n        /* \"apps/Lottery/lottery-dapp/blockchain/contracts/Lottery.sol\":2313:2320  players */\n      0x02\n        /* \"apps/Lottery/lottery-dapp/blockchain/contracts/Lottery.sol\":2321:2326  index */\n      dup2\n        /* \"apps/Lottery/lottery-dapp/blockchain/contracts/Lottery.sol\":2313:2327  players[index] */\n      dup2\n      sload\n      dup2\n      lt\n      tag_96\n      jumpi\n      tag_97\n      tag_98\n      jump\t// in\n    tag_97:\n    tag_96:\n      swap1\n      0x00\n      mstore\n      keccak256(0x00, 0x20)\n      add\n      0x00\n      swap1\n      sload\n      swap1\n      0x0100\n      exp\n      swap1\n      div\n      0xffffffffffffffffffffffffffffffffffffffff\n      and\n        /* \"apps/Lottery/lottery-dapp/blockchain/contracts/Lottery.sol\":2313:2336  players[index].transfer */\n      0xffffffffffffffffffffffffffffffffffffffff\n      and\n        /* \"apps/Lottery/lottery-dapp/blockchain/contracts/Lottery.sol\":2313:2359  players[index].transfer(address(this).balance) */\n      0x08fc\n        /* \"apps/Lottery/lottery-dapp/blockchain/contracts/Lottery.sol\":2337:2358  address(this).balance */\n      selfbalance\n        /* \"apps/Lottery/lottery-dapp/blockchain/contracts/Lottery.sol\":2313:2359  players[index].transfer(address(this).balance) */\n      swap1\n      dup2\n      iszero\n      mul\n      swap1\n      mload(0x40)\n      0x00\n      mload(0x40)\n      dup1\n      dup4\n      sub\n      dup2\n      dup6\n      dup9\n      dup9\n      call\n      swap4\n      pop\n      pop\n      pop\n      pop\n      iszero\n      dup1\n      iszero\n      tag_101\n      jumpi\n      returndatasize\n      0x00\n      dup1\n      returndatacopy\n      revert(0x00, returndatasize)\n    tag_101:\n      pop\n        /* \"apps/Lottery/lottery-dapp/blockchain/contracts/Lottery.sol\":2400:2407  players */\n      0x02\n        /* \"apps/Lottery/lottery-dapp/blockchain/contracts/Lottery.sol\":2408:2413  index */\n      dup2\n        /* \"apps/Lottery/lottery-dapp/blockchain/contracts/Lottery.sol\":2400:2414  players[index] */\n      dup2\n      sload\n      dup2\n      lt\n      tag_102\n      jumpi\n      tag_103\n      tag_98\n      jump\t// in\n    tag_103:\n    tag_102:\n      swap1\n      0x00\n      mstore\n      keccak256(0x00, 0x20)\n      add\n      0x00\n      swap1\n      sload\n      swap1\n      0x0100\n      exp\n      swap1\n      div\n      0xffffffffffffffffffffffffffffffffffffffff\n      and\n        /* \"apps/Lottery/lottery-dapp/blockchain/contracts/Lottery.sol\":2372:2386  lotteryHistory */\n      0x04\n        /* \"apps/Lottery/lottery-dapp/blockchain/contracts/Lottery.sol\":2372:2397  lotteryHistory[lotteryId] */\n      0x00\n        /* \"apps/Lottery/lottery-dapp/blockchain/contracts/Lottery.sol\":2387:2396  lotteryId */\n      sload(0x03)\n        /* \"apps/Lottery/lottery-dapp/blockchain/contracts/Lottery.sol\":2372:2397  lotteryHistory[lotteryId] */\n      dup2\n      mstore\n      0x20\n      add\n      swap1\n      dup2\n      mstore\n      0x20\n      add\n      0x00\n      keccak256\n      0x00\n        /* \"apps/Lottery/lottery-dapp/blockchain/contracts/Lottery.sol\":2372:2414  lotteryHistory[lotteryId] = players[index] */\n      0x0100\n      exp\n      dup2\n      sload\n      dup2\n      0xffffffffffffffffffffffffffffffffffffffff\n      mul\n      not\n      and\n      swap1\n      dup4\n      0xffffffffffffffffffffffffffffffffffffffff\n      and\n      mul\n      or\n      swap1\n      sstore\n      pop\n        /* \"apps/Lottery/lottery-dapp/blockchain/contracts/Lottery.sol\":2425:2434  lotteryId */\n      0x03\n      0x00\n        /* \"apps/Lottery/lottery-dapp/blockchain/contracts/Lottery.sol\":2425:2436  lotteryId++ */\n      dup2\n      sload\n      dup1\n      swap3\n      swap2\n      swap1\n      tag_105\n      swap1\n      tag_106\n      jump\t// in\n    tag_105:\n      swap2\n      swap1\n      pop\n      sstore\n      pop\n        /* \"apps/Lottery/lottery-dapp/blockchain/contracts/Lottery.sol\":2523:2524  0 */\n      0x00\n        /* \"apps/Lottery/lottery-dapp/blockchain/contracts/Lottery.sol\":2501:2525  new address payable[](0) */\n      0xffffffffffffffff\n      dup2\n      gt\n      iszero\n      tag_107\n      jumpi\n      tag_108\n      tag_109\n      jump\t// in\n    tag_108:\n    tag_107:\n      mload(0x40)\n      swap1\n      dup1\n      dup3\n      mstore\n      dup1\n      0x20\n      mul\n      0x20\n      add\n      dup3\n      add\n      0x40\n      mstore\n      dup1\n      iszero\n      tag_110\n      jumpi\n      dup2\n      0x20\n      add\n      0x20\n      dup3\n      mul\n      dup1\n      calldatasize\n      dup4\n      calldatacopy\n      dup1\n      dup3\n      add\n      swap2\n      pop\n      pop\n      swap1\n      pop\n    tag_110:\n      pop\n        /* \"apps/Lottery/lottery-dapp/blockchain/contracts/Lottery.sol\":2491:2498  players */\n      0x02\n        /* \"apps/Lottery/lottery-dapp/blockchain/contracts/Lottery.sol\":2491:2525  players = new address payable[](0) */\n      swap1\n      dup1\n      mload\n      swap1\n      0x20\n      add\n      swap1\n      tag_111\n      swap3\n      swap2\n      swap1\n      tag_112\n      jump\t// in\n    tag_111:\n      pop\n        /* \"apps/Lottery/lottery-dapp/blockchain/contracts/Lottery.sol\":2551:2552  0 */\n      0x00\n        /* \"apps/Lottery/lottery-dapp/blockchain/contracts/Lottery.sol\":2536:2548  randomResult */\n      0x07\n        /* \"apps/Lottery/lottery-dapp/blockchain/contracts/Lottery.sol\":2536:2552  randomResult = 0 */\n      dup2\n      swap1\n      sstore\n      pop\n        /* \"apps/Lottery/lottery-dapp/blockchain/contracts/Lottery.sol\":2114:2614  {... */\n      pop\n        /* \"apps/Lottery/lottery-dapp/blockchain/contracts/Lottery.sol\":2086:2614  function payWinner() public {... */\n      jump\t// out\n        /* \"apps/Lottery/lottery-dapp/blockchain/contracts/Lottery.sol\":1022:1265  function getRandomNumber() public returns (bytes32 requestId) {... */\n    tag_61:\n        /* \"apps/Lottery/lottery-dapp/blockchain/contracts/Lottery.sol\":1065:1082  bytes32 requestId */\n      0x00\n        /* \"apps/Lottery/lottery-dapp/blockchain/contracts/Lottery.sol\":1150:1153  fee */\n      sload(0x06)\n        /* \"apps/Lottery/lottery-dapp/blockchain/contracts/Lottery.sol\":1117:1121  LINK */\n      immutable(\"0xb2219b801710730437d0358146c829b62297a059eceaa0b40b27aea2daecf595\")\n        /* \"apps/Lottery/lottery-dapp/blockchain/contracts/Lottery.sol\":1117:1131  LINK.balanceOf */\n      0xffffffffffffffffffffffffffffffffffffffff\n      and\n      0x70a08231\n        /* \"apps/Lottery/lottery-dapp/blockchain/contracts/Lottery.sol\":1140:1144  this */\n      address\n        /* \"apps/Lottery/lottery-dapp/blockchain/contracts/Lottery.sol\":1117:1146  LINK.balanceOf(address(this)) */\n      mload(0x40)\n      dup3\n      0xffffffff\n      and\n      0xe0\n      shl\n      dup2\n      mstore\n      0x04\n      add\n      tag_114\n      swap2\n      swap1\n      tag_50\n      jump\t// in\n    tag_114:\n      0x20\n      mload(0x40)\n      dup1\n      dup4\n      sub\n      dup2\n      dup7\n      gas\n      staticcall\n      iszero\n      dup1\n      iszero\n      tag_116\n      jumpi\n      returndatasize\n      0x00\n      dup1\n      returndatacopy\n      revert(0x00, returndatasize)\n    tag_116:\n      pop\n      pop\n      pop\n      pop\n      mload(0x40)\n      returndatasize\n      not(0x1f)\n      0x1f\n      dup3\n      add\n      and\n      dup3\n      add\n      dup1\n      0x40\n      mstore\n      pop\n      dup2\n      add\n      swap1\n      tag_117\n      swap2\n      swap1\n      tag_118\n      jump\t// in\n    tag_117:\n        /* \"apps/Lottery/lottery-dapp/blockchain/contracts/Lottery.sol\":1117:1153  LINK.balanceOf(address(this)) >= fee */\n      lt\n      iszero\n        /* \"apps/Lottery/lottery-dapp/blockchain/contracts/Lottery.sol\":1095:1208  require(... */\n      tag_119\n      jumpi\n      mload(0x40)\n      0x08c379a000000000000000000000000000000000000000000000000000000000\n      dup2\n      mstore\n      0x04\n      add\n      tag_120\n      swap1\n      tag_121\n      jump\t// in\n    tag_120:\n      mload(0x40)\n      dup1\n      swap2\n      sub\n      swap1\n      revert\n    tag_119:\n        /* \"apps/Lottery/lottery-dapp/blockchain/contracts/Lottery.sol\":1226:1257  requestRandomness(keyHash, fee) */\n      tag_122\n        /* \"apps/Lottery/lottery-dapp/blockchain/contracts/Lottery.sol\":1244:1251  keyHash */\n      sload(0x05)\n        /* \"apps/Lottery/lottery-dapp/blockchain/contracts/Lottery.sol\":1253:1256  fee */\n      sload(0x06)\n        /* \"apps/Lottery/lottery-dapp/blockchain/contracts/Lottery.sol\":1226:1243  requestRandomness */\n      tag_123\n        /* \"apps/Lottery/lottery-dapp/blockchain/contracts/Lottery.sol\":1226:1257  requestRandomness(keyHash, fee) */\n      jump\t// in\n    tag_122:\n        /* \"apps/Lottery/lottery-dapp/blockchain/contracts/Lottery.sol\":1219:1257  return requestRandomness(keyHash, fee) */\n      swap1\n      pop\n        /* \"apps/Lottery/lottery-dapp/blockchain/contracts/Lottery.sol\":1022:1265  function getRandomNumber() public returns (bytes32 requestId) {... */\n      swap1\n      jump\t// out\n        /* \"apps/Lottery/lottery-dapp/blockchain/contracts/Lottery.sol\":311:335  uint256 public lotteryId */\n    tag_66:\n      sload(0x03)\n      dup2\n      jump\t// out\n        /* \"apps/Lottery/lottery-dapp/blockchain/contracts/Lottery.sol\":1821:1995  function enter() public payable {... */\n    tag_69:\n        /* \"apps/Lottery/lottery-dapp/blockchain/contracts/Lottery.sol\":1884:1893  .01 ether */\n      0x2386f26fc10000\n        /* \"apps/Lottery/lottery-dapp/blockchain/contracts/Lottery.sol\":1872:1881  msg.value */\n      callvalue\n        /* \"apps/Lottery/lottery-dapp/blockchain/contracts/Lottery.sol\":1872:1893  msg.value > .01 ether */\n      gt\n        /* \"apps/Lottery/lottery-dapp/blockchain/contracts/Lottery.sol\":1864:1894  require(msg.value > .01 ether) */\n      tag_125\n      jumpi\n      0x00\n      dup1\n      revert\n    tag_125:\n        /* \"apps/Lottery/lottery-dapp/blockchain/contracts/Lottery.sol\":1954:1961  players */\n      0x02\n        /* \"apps/Lottery/lottery-dapp/blockchain/contracts/Lottery.sol\":1975:1985  msg.sender */\n      caller\n        /* \"apps/Lottery/lottery-dapp/blockchain/contracts/Lottery.sol\":1954:1987  players.push(payable(msg.sender)) */\n      swap1\n      dup1\n      0x01\n      dup2\n      sload\n      add\n      dup1\n      dup3\n      sstore\n      dup1\n      swap2\n      pop\n      pop\n      0x01\n      swap1\n      sub\n      swap1\n      0x00\n      mstore\n      keccak256(0x00, 0x20)\n      add\n      0x00\n      swap1\n      swap2\n      swap1\n      swap2\n      swap1\n      swap2\n      0x0100\n      exp\n      dup2\n      sload\n      dup2\n      0xffffffffffffffffffffffffffffffffffffffff\n      mul\n      not\n      and\n      swap1\n      dup4\n      0xffffffffffffffffffffffffffffffffffffffff\n      and\n      mul\n      or\n      swap1\n      sstore\n      pop\n        /* \"apps/Lottery/lottery-dapp/blockchain/contracts/Lottery.sol\":1821:1995  function enter() public payable {... */\n      jump\t// out\n        /* \"apps/Lottery/lottery-dapp/blockchain/contracts/Lottery.sol\":272:304  address payable[] public players */\n    tag_73:\n      0x02\n      dup2\n      dup2\n      sload\n      dup2\n      lt\n      tag_127\n      jumpi\n      0x00\n      dup1\n      revert\n    tag_127:\n      swap1\n      0x00\n      mstore\n      keccak256(0x00, 0x20)\n      add\n      0x00\n      swap2\n      pop\n      sload\n      swap1\n      0x0100\n      exp\n      swap1\n      div\n      0xffffffffffffffffffffffffffffffffffffffff\n      and\n      dup2\n      jump\t// out\n        /* \"apps/Lottery/lottery-dapp/blockchain/contracts/Lottery.sol\":1273:1424  function fulfillRandomness(bytes32 requestId, uint256 randomness)... */\n    tag_89:\n        /* \"apps/Lottery/lottery-dapp/blockchain/contracts/Lottery.sol\":1406:1416  randomness */\n      dup1\n        /* \"apps/Lottery/lottery-dapp/blockchain/contracts/Lottery.sol\":1391:1403  randomResult */\n      0x07\n        /* \"apps/Lottery/lottery-dapp/blockchain/contracts/Lottery.sol\":1391:1416  randomResult = randomness */\n      dup2\n      swap1\n      sstore\n      pop\n        /* \"apps/Lottery/lottery-dapp/blockchain/contracts/Lottery.sol\":1273:1424  function fulfillRandomness(bytes32 requestId, uint256 randomness)... */\n      pop\n      pop\n      jump\t// out\n        /* \"@chainlink/contracts/src/v0.8/VRFConsumerBase.sol\":7732:8752  function requestRandomness(bytes32 _keyHash, uint256 _fee) internal returns (bytes32 requestId) {... */\n    tag_123:\n        /* \"@chainlink/contracts/src/v0.8/VRFConsumerBase.sol\":7809:7826  bytes32 requestId */\n      0x00\n        /* \"@chainlink/contracts/src/v0.8/VRFConsumerBase.sol\":7834:7838  LINK */\n      immutable(\"0xb2219b801710730437d0358146c829b62297a059eceaa0b40b27aea2daecf595\")\n        /* \"@chainlink/contracts/src/v0.8/VRFConsumerBase.sol\":7834:7854  LINK.transferAndCall */\n      0xffffffffffffffffffffffffffffffffffffffff\n      and\n      0x4000aea0\n        /* \"@chainlink/contracts/src/v0.8/VRFConsumerBase.sol\":7855:7869  vrfCoordinator */\n      immutable(\"0x6dbb33232cde86c8a04f90a8bed9fc1c5ef520188a14538d96eb100d69bc2a94\")\n        /* \"@chainlink/contracts/src/v0.8/VRFConsumerBase.sol\":7871:7875  _fee */\n      dup5\n        /* \"@chainlink/contracts/src/v0.8/VRFConsumerBase.sol\":7888:7896  _keyHash */\n      dup7\n        /* \"@chainlink/contracts/src/v0.8/VRFConsumerBase.sol\":6589:6590  0 */\n      0x00\n        /* \"@chainlink/contracts/src/v0.8/VRFConsumerBase.sol\":7877:7920  abi.encode(_keyHash, USER_SEED_PLACEHOLDER) */\n      add(0x20, mload(0x40))\n      tag_131\n      swap3\n      swap2\n      swap1\n      tag_132\n      jump\t// in\n    tag_131:\n      mload(0x40)\n      0x20\n      dup2\n      dup4\n      sub\n      sub\n      dup2\n      mstore\n      swap1\n      0x40\n      mstore\n        /* \"@chainlink/contracts/src/v0.8/VRFConsumerBase.sol\":7834:7921  LINK.transferAndCall(vrfCoordinator, _fee, abi.encode(_keyHash, USER_SEED_PLACEHOLDER)) */\n      mload(0x40)\n      dup5\n      0xffffffff\n      and\n      0xe0\n      shl\n      dup2\n      mstore\n      0x04\n      add\n      tag_133\n      swap4\n      swap3\n      swap2\n      swap1\n      tag_134\n      jump\t// in\n    tag_133:\n      0x20\n      mload(0x40)\n      dup1\n      dup4\n      sub\n      dup2\n      0x00\n      dup8\n      gas\n      call\n      iszero\n      dup1\n      iszero\n      tag_136\n      jumpi\n      returndatasize\n      0x00\n      dup1\n      returndatacopy\n      revert(0x00, returndatasize)\n    tag_136:\n      pop\n      pop\n      pop\n      pop\n      mload(0x40)\n      returndatasize\n      not(0x1f)\n      0x1f\n      dup3\n      add\n      and\n      dup3\n      add\n      dup1\n      0x40\n      mstore\n      pop\n      dup2\n      add\n      swap1\n      tag_137\n      swap2\n      swap1\n      tag_138\n      jump\t// in\n    tag_137:\n      pop\n        /* \"@chainlink/contracts/src/v0.8/VRFConsumerBase.sol\":8152:8167  uint256 vRFSeed */\n      0x00\n        /* \"@chainlink/contracts/src/v0.8/VRFConsumerBase.sol\":8170:8252  makeVRFInputSeed(_keyHash, USER_SEED_PLACEHOLDER, address(this), nonces[_keyHash]) */\n      tag_139\n        /* \"@chainlink/contracts/src/v0.8/VRFConsumerBase.sol\":8187:8195  _keyHash */\n      dup5\n        /* \"@chainlink/contracts/src/v0.8/VRFConsumerBase.sol\":6589:6590  0 */\n      0x00\n        /* \"@chainlink/contracts/src/v0.8/VRFConsumerBase.sol\":8228:8232  this */\n      address\n        /* \"@chainlink/contracts/src/v0.8/VRFConsumerBase.sol\":8235:8241  nonces */\n      0x00\n        /* \"@chainlink/contracts/src/v0.8/VRFConsumerBase.sol\":8235:8251  nonces[_keyHash] */\n      dup1\n        /* \"@chainlink/contracts/src/v0.8/VRFConsumerBase.sol\":8242:8250  _keyHash */\n      dup10\n        /* \"@chainlink/contracts/src/v0.8/VRFConsumerBase.sol\":8235:8251  nonces[_keyHash] */\n      dup2\n      mstore\n      0x20\n      add\n      swap1\n      dup2\n      mstore\n      0x20\n      add\n      0x00\n      keccak256\n      sload\n        /* \"@chainlink/contracts/src/v0.8/VRFConsumerBase.sol\":8170:8186  makeVRFInputSeed */\n      tag_140\n        /* \"@chainlink/contracts/src/v0.8/VRFConsumerBase.sol\":8170:8252  makeVRFInputSeed(_keyHash, USER_SEED_PLACEHOLDER, address(this), nonces[_keyHash]) */\n      jump\t// in\n    tag_139:\n        /* \"@chainlink/contracts/src/v0.8/VRFConsumerBase.sol\":8152:8252  uint256 vRFSeed = makeVRFInputSeed(_keyHash, USER_SEED_PLACEHOLDER, address(this), nonces[_keyHash]) */\n      swap1\n      pop\n        /* \"@chainlink/contracts/src/v0.8/VRFConsumerBase.sol\":8701:8702  1 */\n      0x01\n        /* \"@chainlink/contracts/src/v0.8/VRFConsumerBase.sol\":8682:8688  nonces */\n      0x00\n        /* \"@chainlink/contracts/src/v0.8/VRFConsumerBase.sol\":8682:8698  nonces[_keyHash] */\n      dup1\n        /* \"@chainlink/contracts/src/v0.8/VRFConsumerBase.sol\":8689:8697  _keyHash */\n      dup7\n        /* \"@chainlink/contracts/src/v0.8/VRFConsumerBase.sol\":8682:8698  nonces[_keyHash] */\n      dup2\n      mstore\n      0x20\n      add\n      swap1\n      dup2\n      mstore\n      0x20\n      add\n      0x00\n      keccak256\n      sload\n        /* \"@chainlink/contracts/src/v0.8/VRFConsumerBase.sol\":8682:8702  nonces[_keyHash] + 1 */\n      tag_141\n      swap2\n      swap1\n      tag_142\n      jump\t// in\n    tag_141:\n        /* \"@chainlink/contracts/src/v0.8/VRFConsumerBase.sol\":8663:8669  nonces */\n      0x00\n        /* \"@chainlink/contracts/src/v0.8/VRFConsumerBase.sol\":8663:8679  nonces[_keyHash] */\n      dup1\n        /* \"@chainlink/contracts/src/v0.8/VRFConsumerBase.sol\":8670:8678  _keyHash */\n      dup7\n        /* \"@chainlink/contracts/src/v0.8/VRFConsumerBase.sol\":8663:8679  nonces[_keyHash] */\n      dup2\n      mstore\n      0x20\n      add\n      swap1\n      dup2\n      mstore\n      0x20\n      add\n      0x00\n      keccak256\n        /* \"@chainlink/contracts/src/v0.8/VRFConsumerBase.sol\":8663:8702  nonces[_keyHash] = nonces[_keyHash] + 1 */\n      dup2\n      swap1\n      sstore\n      pop\n        /* \"@chainlink/contracts/src/v0.8/VRFConsumerBase.sol\":8715:8747  makeRequestId(_keyHash, vRFSeed) */\n      tag_143\n        /* \"@chainlink/contracts/src/v0.8/VRFConsumerBase.sol\":8729:8737  _keyHash */\n      dup5\n        /* \"@chainlink/contracts/src/v0.8/VRFConsumerBase.sol\":8739:8746  vRFSeed */\n      dup3\n        /* \"@chainlink/contracts/src/v0.8/VRFConsumerBase.sol\":8715:8728  makeRequestId */\n      tag_144\n        /* \"@chainlink/contracts/src/v0.8/VRFConsumerBase.sol\":8715:8747  makeRequestId(_keyHash, vRFSeed) */\n      jump\t// in\n    tag_143:\n        /* \"@chainlink/contracts/src/v0.8/VRFConsumerBase.sol\":8708:8747  return makeRequestId(_keyHash, vRFSeed) */\n      swap2\n      pop\n      pop\n        /* \"@chainlink/contracts/src/v0.8/VRFConsumerBase.sol\":7732:8752  function requestRandomness(bytes32 _keyHash, uint256 _fee) internal returns (bytes32 requestId) {... */\n      swap3\n      swap2\n      pop\n      pop\n      jump\t// out\n        /* \"@chainlink/contracts/src/v0.8/VRFRequestIDBase.sol\":796:1036  function makeVRFInputSeed(... */\n    tag_140:\n        /* \"@chainlink/contracts/src/v0.8/VRFRequestIDBase.sol\":938:945  uint256 */\n      0x00\n        /* \"@chainlink/contracts/src/v0.8/VRFRequestIDBase.sol\":989:997  _keyHash */\n      dup5\n        /* \"@chainlink/contracts/src/v0.8/VRFRequestIDBase.sol\":999:1008  _userSeed */\n      dup5\n        /* \"@chainlink/contracts/src/v0.8/VRFRequestIDBase.sol\":1010:1020  _requester */\n      dup5\n        /* \"@chainlink/contracts/src/v0.8/VRFRequestIDBase.sol\":1022:1028  _nonce */\n      dup5\n        /* \"@chainlink/contracts/src/v0.8/VRFRequestIDBase.sol\":978:1029  abi.encode(_keyHash, _userSeed, _requester, _nonce) */\n      add(0x20, mload(0x40))\n      tag_146\n      swap5\n      swap4\n      swap3\n      swap2\n      swap1\n      tag_147\n      jump\t// in\n    tag_146:\n      mload(0x40)\n      0x20\n      dup2\n      dup4\n      sub\n      sub\n      dup2\n      mstore\n      swap1\n      0x40\n      mstore\n        /* \"@chainlink/contracts/src/v0.8/VRFRequestIDBase.sol\":968:1030  keccak256(abi.encode(_keyHash, _userSeed, _requester, _nonce)) */\n      dup1\n      mload\n      swap1\n      0x20\n      add\n      keccak256\n        /* \"@chainlink/contracts/src/v0.8/VRFRequestIDBase.sol\":960:1031  uint256(keccak256(abi.encode(_keyHash, _userSeed, _requester, _nonce))) */\n      0x00\n      shr\n        /* \"@chainlink/contracts/src/v0.8/VRFRequestIDBase.sol\":953:1031  return uint256(keccak256(abi.encode(_keyHash, _userSeed, _requester, _nonce))) */\n      swap1\n      pop\n        /* \"@chainlink/contracts/src/v0.8/VRFRequestIDBase.sol\":796:1036  function makeVRFInputSeed(... */\n      swap5\n      swap4\n      pop\n      pop\n      pop\n      pop\n      jump\t// out\n        /* \"@chainlink/contracts/src/v0.8/VRFRequestIDBase.sol\":1416:1582  function makeRequestId(bytes32 _keyHash, uint256 _vRFInputSeed) internal pure returns (bytes32) {... */\n    tag_144:\n        /* \"@chainlink/contracts/src/v0.8/VRFRequestIDBase.sol\":1503:1510  bytes32 */\n      0x00\n        /* \"@chainlink/contracts/src/v0.8/VRFRequestIDBase.sol\":1552:1560  _keyHash */\n      dup3\n        /* \"@chainlink/contracts/src/v0.8/VRFRequestIDBase.sol\":1562:1575  _vRFInputSeed */\n      dup3\n        /* \"@chainlink/contracts/src/v0.8/VRFRequestIDBase.sol\":1535:1576  abi.encodePacked(_keyHash, _vRFInputSeed) */\n      add(0x20, mload(0x40))\n      tag_149\n      swap3\n      swap2\n      swap1\n      tag_150\n      jump\t// in\n    tag_149:\n      mload(0x40)\n      0x20\n      dup2\n      dup4\n      sub\n      sub\n      dup2\n      mstore\n      swap1\n      0x40\n      mstore\n        /* \"@chainlink/contracts/src/v0.8/VRFRequestIDBase.sol\":1525:1577  keccak256(abi.encodePacked(_keyHash, _vRFInputSeed)) */\n      dup1\n      mload\n      swap1\n      0x20\n      add\n      keccak256\n        /* \"@chainlink/contracts/src/v0.8/VRFRequestIDBase.sol\":1518:1577  return keccak256(abi.encodePacked(_keyHash, _vRFInputSeed)) */\n      swap1\n      pop\n        /* \"@chainlink/contracts/src/v0.8/VRFRequestIDBase.sol\":1416:1582  function makeRequestId(bytes32 _keyHash, uint256 _vRFInputSeed) internal pure returns (bytes32) {... */\n      swap3\n      swap2\n      pop\n      pop\n      jump\t// out\n    tag_112:\n      dup3\n      dup1\n      sload\n      dup3\n      dup3\n      sstore\n      swap1\n      0x00\n      mstore\n      keccak256(0x00, 0x20)\n      swap1\n      dup2\n      add\n      swap3\n      dup3\n      iszero\n      tag_151\n      jumpi\n      swap2\n      0x20\n      mul\n      dup3\n      add\n    tag_152:\n      dup3\n      dup2\n      gt\n      iszero\n      tag_153\n      jumpi\n      dup3\n      mload\n      dup3\n      exp(0x0100, 0x00)\n      dup2\n      sload\n      dup2\n      0xffffffffffffffffffffffffffffffffffffffff\n      mul\n      not\n      and\n      swap1\n      dup4\n      0xffffffffffffffffffffffffffffffffffffffff\n      and\n      mul\n      or\n      swap1\n      sstore\n      pop\n      swap2\n      0x20\n      add\n      swap2\n      swap1\n      0x01\n      add\n      swap1\n      jump(tag_152)\n    tag_153:\n    tag_151:\n      pop\n      swap1\n      pop\n      tag_154\n      swap2\n      swap1\n      tag_155\n      jump\t// in\n    tag_154:\n      pop\n      swap1\n      jump\t// out\n    tag_155:\n    tag_156:\n      dup1\n      dup3\n      gt\n      iszero\n      tag_157\n      jumpi\n      0x00\n      dup2\n      0x00\n      swap1\n      sstore\n      pop\n      0x01\n      add\n      jump(tag_156)\n    tag_157:\n      pop\n      swap1\n      jump\t// out\n        /* \"#utility.yul\":7:84   */\n    tag_158:\n        /* \"#utility.yul\":44:51   */\n      0x00\n        /* \"#utility.yul\":73:78   */\n      dup2\n        /* \"#utility.yul\":62:78   */\n      swap1\n      pop\n        /* \"#utility.yul\":7:84   */\n      swap2\n      swap1\n      pop\n      jump\t// out\n        /* \"#utility.yul\":90:208   */\n    tag_159:\n        /* \"#utility.yul\":177:201   */\n      tag_206\n        /* \"#utility.yul\":195:200   */\n      dup2\n        /* \"#utility.yul\":177:201   */\n      tag_158\n      jump\t// in\n    tag_206:\n        /* \"#utility.yul\":172:175   */\n      dup3\n        /* \"#utility.yul\":165:202   */\n      mstore\n        /* \"#utility.yul\":90:208   */\n      pop\n      pop\n      jump\t// out\n        /* \"#utility.yul\":214:436   */\n    tag_21:\n        /* \"#utility.yul\":307:311   */\n      0x00\n        /* \"#utility.yul\":345:347   */\n      0x20\n        /* \"#utility.yul\":334:343   */\n      dup3\n        /* \"#utility.yul\":330:348   */\n      add\n        /* \"#utility.yul\":322:348   */\n      swap1\n      pop\n        /* \"#utility.yul\":358:429   */\n      tag_208\n        /* \"#utility.yul\":426:427   */\n      0x00\n        /* \"#utility.yul\":415:424   */\n      dup4\n        /* \"#utility.yul\":411:428   */\n      add\n        /* \"#utility.yul\":402:408   */\n      dup5\n        /* \"#utility.yul\":358:429   */\n      tag_159\n      jump\t// in\n    tag_208:\n        /* \"#utility.yul\":214:436   */\n      swap3\n      swap2\n      pop\n      pop\n      jump\t// out\n        /* \"#utility.yul\":523:640   */\n    tag_161:\n        /* \"#utility.yul\":632:633   */\n      0x00\n        /* \"#utility.yul\":629:630   */\n      dup1\n        /* \"#utility.yul\":622:634   */\n      revert\n        /* \"#utility.yul\":769:891   */\n    tag_163:\n        /* \"#utility.yul\":842:866   */\n      tag_213\n        /* \"#utility.yul\":860:865   */\n      dup2\n        /* \"#utility.yul\":842:866   */\n      tag_158\n      jump\t// in\n    tag_213:\n        /* \"#utility.yul\":835:840   */\n      dup2\n        /* \"#utility.yul\":832:867   */\n      eq\n        /* \"#utility.yul\":822:885   */\n      tag_214\n      jumpi\n        /* \"#utility.yul\":881:882   */\n      0x00\n        /* \"#utility.yul\":878:879   */\n      dup1\n        /* \"#utility.yul\":871:883   */\n      revert\n        /* \"#utility.yul\":822:885   */\n    tag_214:\n        /* \"#utility.yul\":769:891   */\n      pop\n      jump\t// out\n        /* \"#utility.yul\":897:1036   */\n    tag_164:\n        /* \"#utility.yul\":943:948   */\n      0x00\n        /* \"#utility.yul\":981:987   */\n      dup2\n        /* \"#utility.yul\":968:988   */\n      calldataload\n        /* \"#utility.yul\":959:988   */\n      swap1\n      pop\n        /* \"#utility.yul\":997:1030   */\n      tag_216\n        /* \"#utility.yul\":1024:1029   */\n      dup2\n        /* \"#utility.yul\":997:1030   */\n      tag_163\n      jump\t// in\n    tag_216:\n        /* \"#utility.yul\":897:1036   */\n      swap3\n      swap2\n      pop\n      pop\n      jump\t// out\n        /* \"#utility.yul\":1042:1371   */\n    tag_25:\n        /* \"#utility.yul\":1101:1107   */\n      0x00\n        /* \"#utility.yul\":1150:1152   */\n      0x20\n        /* \"#utility.yul\":1138:1147   */\n      dup3\n        /* \"#utility.yul\":1129:1136   */\n      dup5\n        /* \"#utility.yul\":1125:1148   */\n      sub\n        /* \"#utility.yul\":1121:1153   */\n      slt\n        /* \"#utility.yul\":1118:1237   */\n      iszero\n      tag_218\n      jumpi\n        /* \"#utility.yul\":1156:1235   */\n      tag_219\n      tag_161\n      jump\t// in\n    tag_219:\n        /* \"#utility.yul\":1118:1237   */\n    tag_218:\n        /* \"#utility.yul\":1276:1277   */\n      0x00\n        /* \"#utility.yul\":1301:1354   */\n      tag_220\n        /* \"#utility.yul\":1346:1353   */\n      dup5\n        /* \"#utility.yul\":1337:1343   */\n      dup3\n        /* \"#utility.yul\":1326:1335   */\n      dup6\n        /* \"#utility.yul\":1322:1344   */\n      add\n        /* \"#utility.yul\":1301:1354   */\n      tag_164\n      jump\t// in\n    tag_220:\n        /* \"#utility.yul\":1291:1354   */\n      swap2\n      pop\n        /* \"#utility.yul\":1247:1364   */\n      pop\n        /* \"#utility.yul\":1042:1371   */\n      swap3\n      swap2\n      pop\n      pop\n      jump\t// out\n        /* \"#utility.yul\":1377:1503   */\n    tag_165:\n        /* \"#utility.yul\":1414:1421   */\n      0x00\n        /* \"#utility.yul\":1454:1496   */\n      0xffffffffffffffffffffffffffffffffffffffff\n        /* \"#utility.yul\":1447:1452   */\n      dup3\n        /* \"#utility.yul\":1443:1497   */\n      and\n        /* \"#utility.yul\":1432:1497   */\n      swap1\n      pop\n        /* \"#utility.yul\":1377:1503   */\n      swap2\n      swap1\n      pop\n      jump\t// out\n        /* \"#utility.yul\":1509:1613   */\n    tag_166:\n        /* \"#utility.yul\":1554:1561   */\n      0x00\n        /* \"#utility.yul\":1583:1607   */\n      tag_223\n        /* \"#utility.yul\":1601:1606   */\n      dup3\n        /* \"#utility.yul\":1583:1607   */\n      tag_165\n      jump\t// in\n    tag_223:\n        /* \"#utility.yul\":1572:1607   */\n      swap1\n      pop\n        /* \"#utility.yul\":1509:1613   */\n      swap2\n      swap1\n      pop\n      jump\t// out\n        /* \"#utility.yul\":1619:1761   */\n    tag_167:\n        /* \"#utility.yul\":1722:1754   */\n      tag_225\n        /* \"#utility.yul\":1748:1753   */\n      dup2\n        /* \"#utility.yul\":1722:1754   */\n      tag_166\n      jump\t// in\n    tag_225:\n        /* \"#utility.yul\":1717:1720   */\n      dup3\n        /* \"#utility.yul\":1710:1755   */\n      mstore\n        /* \"#utility.yul\":1619:1761   */\n      pop\n      pop\n      jump\t// out\n        /* \"#utility.yul\":1767:2021   */\n    tag_28:\n        /* \"#utility.yul\":1876:1880   */\n      0x00\n        /* \"#utility.yul\":1914:1916   */\n      0x20\n        /* \"#utility.yul\":1903:1912   */\n      dup3\n        /* \"#utility.yul\":1899:1917   */\n      add\n        /* \"#utility.yul\":1891:1917   */\n      swap1\n      pop\n        /* \"#utility.yul\":1927:2014   */\n      tag_227\n        /* \"#utility.yul\":2011:2012   */\n      0x00\n        /* \"#utility.yul\":2000:2009   */\n      dup4\n        /* \"#utility.yul\":1996:2013   */\n      add\n        /* \"#utility.yul\":1987:1993   */\n      dup5\n        /* \"#utility.yul\":1927:2014   */\n      tag_167\n      jump\t// in\n    tag_227:\n        /* \"#utility.yul\":1767:2021   */\n      swap3\n      swap2\n      pop\n      pop\n      jump\t// out\n        /* \"#utility.yul\":2027:2149   */\n    tag_168:\n        /* \"#utility.yul\":2102:2108   */\n      0x00\n        /* \"#utility.yul\":2136:2141   */\n      dup2\n        /* \"#utility.yul\":2130:2142   */\n      mload\n        /* \"#utility.yul\":2120:2142   */\n      swap1\n      pop\n        /* \"#utility.yul\":2027:2149   */\n      swap2\n      swap1\n      pop\n      jump\t// out\n        /* \"#utility.yul\":2155:2347   */\n    tag_169:\n        /* \"#utility.yul\":2262:2273   */\n      0x00\n        /* \"#utility.yul\":2296:2302   */\n      dup3\n        /* \"#utility.yul\":2291:2294   */\n      dup3\n        /* \"#utility.yul\":2284:2303   */\n      mstore\n        /* \"#utility.yul\":2336:2340   */\n      0x20\n        /* \"#utility.yul\":2331:2334   */\n      dup3\n        /* \"#utility.yul\":2327:2341   */\n      add\n        /* \"#utility.yul\":2312:2341   */\n      swap1\n      pop\n        /* \"#utility.yul\":2155:2347   */\n      swap3\n      swap2\n      pop\n      pop\n      jump\t// out\n        /* \"#utility.yul\":2353:2493   */\n    tag_170:\n        /* \"#utility.yul\":2428:2432   */\n      0x00\n        /* \"#utility.yul\":2451:2454   */\n      dup2\n        /* \"#utility.yul\":2443:2454   */\n      swap1\n      pop\n        /* \"#utility.yul\":2481:2485   */\n      0x20\n        /* \"#utility.yul\":2476:2479   */\n      dup3\n        /* \"#utility.yul\":2472:2486   */\n      add\n        /* \"#utility.yul\":2464:2486   */\n      swap1\n      pop\n        /* \"#utility.yul\":2353:2493   */\n      swap2\n      swap1\n      pop\n      jump\t// out\n        /* \"#utility.yul\":2499:2631   */\n    tag_171:\n        /* \"#utility.yul\":2592:2624   */\n      tag_232\n        /* \"#utility.yul\":2618:2623   */\n      dup2\n        /* \"#utility.yul\":2592:2624   */\n      tag_166\n      jump\t// in\n    tag_232:\n        /* \"#utility.yul\":2587:2590   */\n      dup3\n        /* \"#utility.yul\":2580:2625   */\n      mstore\n        /* \"#utility.yul\":2499:2631   */\n      pop\n      pop\n      jump\t// out\n        /* \"#utility.yul\":2637:2848   */\n    tag_172:\n        /* \"#utility.yul\":2722:2732   */\n      0x00\n        /* \"#utility.yul\":2743:2805   */\n      tag_234\n        /* \"#utility.yul\":2801:2804   */\n      dup4\n        /* \"#utility.yul\":2793:2799   */\n      dup4\n        /* \"#utility.yul\":2743:2805   */\n      tag_171\n      jump\t// in\n    tag_234:\n        /* \"#utility.yul\":2837:2841   */\n      0x20\n        /* \"#utility.yul\":2832:2835   */\n      dup4\n        /* \"#utility.yul\":2828:2842   */\n      add\n        /* \"#utility.yul\":2814:2842   */\n      swap1\n      pop\n        /* \"#utility.yul\":2637:2848   */\n      swap3\n      swap2\n      pop\n      pop\n      jump\t// out\n        /* \"#utility.yul\":2854:2975   */\n    tag_173:\n        /* \"#utility.yul\":2932:2936   */\n      0x00\n        /* \"#utility.yul\":2964:2968   */\n      0x20\n        /* \"#utility.yul\":2959:2962   */\n      dup3\n        /* \"#utility.yul\":2955:2969   */\n      add\n        /* \"#utility.yul\":2947:2969   */\n      swap1\n      pop\n        /* \"#utility.yul\":2854:2975   */\n      swap2\n      swap1\n      pop\n      jump\t// out\n        /* \"#utility.yul\":3027:3823   */\n    tag_174:\n        /* \"#utility.yul\":3162:3165   */\n      0x00\n        /* \"#utility.yul\":3191:3253   */\n      tag_237\n        /* \"#utility.yul\":3247:3252   */\n      dup3\n        /* \"#utility.yul\":3191:3253   */\n      tag_168\n      jump\t// in\n    tag_237:\n        /* \"#utility.yul\":3269:3363   */\n      tag_238\n        /* \"#utility.yul\":3356:3362   */\n      dup2\n        /* \"#utility.yul\":3351:3354   */\n      dup6\n        /* \"#utility.yul\":3269:3363   */\n      tag_169\n      jump\t// in\n    tag_238:\n        /* \"#utility.yul\":3262:3363   */\n      swap4\n      pop\n        /* \"#utility.yul\":3387:3451   */\n      tag_239\n        /* \"#utility.yul\":3445:3450   */\n      dup4\n        /* \"#utility.yul\":3387:3451   */\n      tag_170\n      jump\t// in\n    tag_239:\n        /* \"#utility.yul\":3474:3481   */\n      dup1\n        /* \"#utility.yul\":3505:3506   */\n      0x00\n        /* \"#utility.yul\":3490:3798   */\n    tag_240:\n        /* \"#utility.yul\":3515:3521   */\n      dup4\n        /* \"#utility.yul\":3512:3513   */\n      dup2\n        /* \"#utility.yul\":3509:3522   */\n      lt\n        /* \"#utility.yul\":3490:3798   */\n      iszero\n      tag_242\n      jumpi\n        /* \"#utility.yul\":3591:3597   */\n      dup2\n        /* \"#utility.yul\":3585:3598   */\n      mload\n        /* \"#utility.yul\":3618:3697   */\n      tag_243\n        /* \"#utility.yul\":3693:3696   */\n      dup9\n        /* \"#utility.yul\":3678:3691   */\n      dup3\n        /* \"#utility.yul\":3618:3697   */\n      tag_172\n      jump\t// in\n    tag_243:\n        /* \"#utility.yul\":3611:3697   */\n      swap8\n      pop\n        /* \"#utility.yul\":3720:3788   */\n      tag_244\n        /* \"#utility.yul\":3781:3787   */\n      dup4\n        /* \"#utility.yul\":3720:3788   */\n      tag_173\n      jump\t// in\n    tag_244:\n        /* \"#utility.yul\":3710:3788   */\n      swap3\n      pop\n        /* \"#utility.yul\":3550:3798   */\n      pop\n        /* \"#utility.yul\":3537:3538   */\n      0x01\n        /* \"#utility.yul\":3534:3535   */\n      dup2\n        /* \"#utility.yul\":3530:3539   */\n      add\n        /* \"#utility.yul\":3525:3539   */\n      swap1\n      pop\n        /* \"#utility.yul\":3490:3798   */\n      jump(tag_240)\n    tag_242:\n        /* \"#utility.yul\":3494:3508   */\n      pop\n        /* \"#utility.yul\":3814:3817   */\n      dup6\n        /* \"#utility.yul\":3807:3817   */\n      swap4\n      pop\n        /* \"#utility.yul\":3167:3823   */\n      pop\n      pop\n      pop\n        /* \"#utility.yul\":3027:3823   */\n      swap3\n      swap2\n      pop\n      pop\n      jump\t// out\n        /* \"#utility.yul\":3829:4234   */\n    tag_45:\n        /* \"#utility.yul\":3988:3992   */\n      0x00\n        /* \"#utility.yul\":4026:4028   */\n      0x20\n        /* \"#utility.yul\":4015:4024   */\n      dup3\n        /* \"#utility.yul\":4011:4029   */\n      add\n        /* \"#utility.yul\":4003:4029   */\n      swap1\n      pop\n        /* \"#utility.yul\":4075:4084   */\n      dup2\n        /* \"#utility.yul\":4069:4073   */\n      dup2\n        /* \"#utility.yul\":4065:4085   */\n      sub\n        /* \"#utility.yul\":4061:4062   */\n      0x00\n        /* \"#utility.yul\":4050:4059   */\n      dup4\n        /* \"#utility.yul\":4046:4063   */\n      add\n        /* \"#utility.yul\":4039:4086   */\n      mstore\n        /* \"#utility.yul\":4103:4227   */\n      tag_246\n        /* \"#utility.yul\":4222:4226   */\n      dup2\n        /* \"#utility.yul\":4213:4219   */\n      dup5\n        /* \"#utility.yul\":4103:4227   */\n      tag_174\n      jump\t// in\n    tag_246:\n        /* \"#utility.yul\":4095:4227   */\n      swap1\n      pop\n        /* \"#utility.yul\":3829:4234   */\n      swap3\n      swap2\n      pop\n      pop\n      jump\t// out\n        /* \"#utility.yul\":4240:4336   */\n    tag_175:\n        /* \"#utility.yul\":4277:4284   */\n      0x00\n        /* \"#utility.yul\":4306:4330   */\n      tag_248\n        /* \"#utility.yul\":4324:4329   */\n      dup3\n        /* \"#utility.yul\":4306:4330   */\n      tag_165\n      jump\t// in\n    tag_248:\n        /* \"#utility.yul\":4295:4330   */\n      swap1\n      pop\n        /* \"#utility.yul\":4240:4336   */\n      swap2\n      swap1\n      pop\n      jump\t// out\n        /* \"#utility.yul\":4342:4460   */\n    tag_176:\n        /* \"#utility.yul\":4429:4453   */\n      tag_250\n        /* \"#utility.yul\":4447:4452   */\n      dup2\n        /* \"#utility.yul\":4429:4453   */\n      tag_175\n      jump\t// in\n    tag_250:\n        /* \"#utility.yul\":4424:4427   */\n      dup3\n        /* \"#utility.yul\":4417:4454   */\n      mstore\n        /* \"#utility.yul\":4342:4460   */\n      pop\n      pop\n      jump\t// out\n        /* \"#utility.yul\":4466:4688   */\n    tag_50:\n        /* \"#utility.yul\":4559:4563   */\n      0x00\n        /* \"#utility.yul\":4597:4599   */\n      0x20\n        /* \"#utility.yul\":4586:4595   */\n      dup3\n        /* \"#utility.yul\":4582:4600   */\n      add\n        /* \"#utility.yul\":4574:4600   */\n      swap1\n      pop\n        /* \"#utility.yul\":4610:4681   */\n      tag_252\n        /* \"#utility.yul\":4678:4679   */\n      0x00\n        /* \"#utility.yul\":4667:4676   */\n      dup4\n        /* \"#utility.yul\":4663:4680   */\n      add\n        /* \"#utility.yul\":4654:4660   */\n      dup5\n        /* \"#utility.yul\":4610:4681   */\n      tag_176\n      jump\t// in\n    tag_252:\n        /* \"#utility.yul\":4466:4688   */\n      swap3\n      swap2\n      pop\n      pop\n      jump\t// out\n        /* \"#utility.yul\":4694:4771   */\n    tag_177:\n        /* \"#utility.yul\":4731:4738   */\n      0x00\n        /* \"#utility.yul\":4760:4765   */\n      dup2\n        /* \"#utility.yul\":4749:4765   */\n      swap1\n      pop\n        /* \"#utility.yul\":4694:4771   */\n      swap2\n      swap1\n      pop\n      jump\t// out\n        /* \"#utility.yul\":4777:4899   */\n    tag_178:\n        /* \"#utility.yul\":4850:4874   */\n      tag_255\n        /* \"#utility.yul\":4868:4873   */\n      dup2\n        /* \"#utility.yul\":4850:4874   */\n      tag_177\n      jump\t// in\n    tag_255:\n        /* \"#utility.yul\":4843:4848   */\n      dup2\n        /* \"#utility.yul\":4840:4875   */\n      eq\n        /* \"#utility.yul\":4830:4893   */\n      tag_256\n      jumpi\n        /* \"#utility.yul\":4889:4890   */\n      0x00\n        /* \"#utility.yul\":4886:4887   */\n      dup1\n        /* \"#utility.yul\":4879:4891   */\n      revert\n        /* \"#utility.yul\":4830:4893   */\n    tag_256:\n        /* \"#utility.yul\":4777:4899   */\n      pop\n      jump\t// out\n        /* \"#utility.yul\":4905:5044   */\n    tag_179:\n        /* \"#utility.yul\":4951:4956   */\n      0x00\n        /* \"#utility.yul\":4989:4995   */\n      dup2\n        /* \"#utility.yul\":4976:4996   */\n      calldataload\n        /* \"#utility.yul\":4967:4996   */\n      swap1\n      pop\n        /* \"#utility.yul\":5005:5038   */\n      tag_258\n        /* \"#utility.yul\":5032:5037   */\n      dup2\n        /* \"#utility.yul\":5005:5038   */\n      tag_178\n      jump\t// in\n    tag_258:\n        /* \"#utility.yul\":4905:5044   */\n      swap3\n      swap2\n      pop\n      pop\n      jump\t// out\n        /* \"#utility.yul\":5050:5524   */\n    tag_54:\n        /* \"#utility.yul\":5118:5124   */\n      0x00\n        /* \"#utility.yul\":5126:5132   */\n      dup1\n        /* \"#utility.yul\":5175:5177   */\n      0x40\n        /* \"#utility.yul\":5163:5172   */\n      dup4\n        /* \"#utility.yul\":5154:5161   */\n      dup6\n        /* \"#utility.yul\":5150:5173   */\n      sub\n        /* \"#utility.yul\":5146:5178   */\n      slt\n        /* \"#utility.yul\":5143:5262   */\n      iszero\n      tag_260\n      jumpi\n        /* \"#utility.yul\":5181:5260   */\n      tag_261\n      tag_161\n      jump\t// in\n    tag_261:\n        /* \"#utility.yul\":5143:5262   */\n    tag_260:\n        /* \"#utility.yul\":5301:5302   */\n      0x00\n        /* \"#utility.yul\":5326:5379   */\n      tag_262\n        /* \"#utility.yul\":5371:5378   */\n      dup6\n        /* \"#utility.yul\":5362:5368   */\n      dup3\n        /* \"#utility.yul\":5351:5360   */\n      dup7\n        /* \"#utility.yul\":5347:5369   */\n      add\n        /* \"#utility.yul\":5326:5379   */\n      tag_179\n      jump\t// in\n    tag_262:\n        /* \"#utility.yul\":5316:5379   */\n      swap3\n      pop\n        /* \"#utility.yul\":5272:5389   */\n      pop\n        /* \"#utility.yul\":5428:5430   */\n      0x20\n        /* \"#utility.yul\":5454:5507   */\n      tag_263\n        /* \"#utility.yul\":5499:5506   */\n      dup6\n        /* \"#utility.yul\":5490:5496   */\n      dup3\n        /* \"#utility.yul\":5479:5488   */\n      dup7\n        /* \"#utility.yul\":5475:5497   */\n      add\n        /* \"#utility.yul\":5454:5507   */\n      tag_164\n      jump\t// in\n    tag_263:\n        /* \"#utility.yul\":5444:5507   */\n      swap2\n      pop\n        /* \"#utility.yul\":5399:5517   */\n      pop\n        /* \"#utility.yul\":5050:5524   */\n      swap3\n      pop\n      swap3\n      swap1\n      pop\n      jump\t// out\n        /* \"#utility.yul\":5530:5648   */\n    tag_180:\n        /* \"#utility.yul\":5617:5641   */\n      tag_265\n        /* \"#utility.yul\":5635:5640   */\n      dup2\n        /* \"#utility.yul\":5617:5641   */\n      tag_177\n      jump\t// in\n    tag_265:\n        /* \"#utility.yul\":5612:5615   */\n      dup3\n        /* \"#utility.yul\":5605:5642   */\n      mstore\n        /* \"#utility.yul\":5530:5648   */\n      pop\n      pop\n      jump\t// out\n        /* \"#utility.yul\":5654:5876   */\n    tag_63:\n        /* \"#utility.yul\":5747:5751   */\n      0x00\n        /* \"#utility.yul\":5785:5787   */\n      0x20\n        /* \"#utility.yul\":5774:5783   */\n      dup3\n        /* \"#utility.yul\":5770:5788   */\n      add\n        /* \"#utility.yul\":5762:5788   */\n      swap1\n      pop\n        /* \"#utility.yul\":5798:5869   */\n      tag_267\n        /* \"#utility.yul\":5866:5867   */\n      0x00\n        /* \"#utility.yul\":5855:5864   */\n      dup4\n        /* \"#utility.yul\":5851:5868   */\n      add\n        /* \"#utility.yul\":5842:5848   */\n      dup5\n        /* \"#utility.yul\":5798:5869   */\n      tag_180\n      jump\t// in\n    tag_267:\n        /* \"#utility.yul\":5654:5876   */\n      swap3\n      swap2\n      pop\n      pop\n      jump\t// out\n        /* \"#utility.yul\":5882:6051   */\n    tag_181:\n        /* \"#utility.yul\":5966:5977   */\n      0x00\n        /* \"#utility.yul\":6000:6006   */\n      dup3\n        /* \"#utility.yul\":5995:5998   */\n      dup3\n        /* \"#utility.yul\":5988:6007   */\n      mstore\n        /* \"#utility.yul\":6040:6044   */\n      0x20\n        /* \"#utility.yul\":6035:6038   */\n      dup3\n        /* \"#utility.yul\":6031:6045   */\n      add\n        /* \"#utility.yul\":6016:6045   */\n      swap1\n      pop\n        /* \"#utility.yul\":5882:6051   */\n      swap3\n      swap2\n      pop\n      pop\n      jump\t// out\n        /* \"#utility.yul\":6057:6238   */\n    tag_182:\n        /* \"#utility.yul\":6197:6230   */\n      0x4f6e6c7920565246436f6f7264696e61746f722063616e2066756c66696c6c00\n        /* \"#utility.yul\":6193:6194   */\n      0x00\n        /* \"#utility.yul\":6185:6191   */\n      dup3\n        /* \"#utility.yul\":6181:6195   */\n      add\n        /* \"#utility.yul\":6174:6231   */\n      mstore\n        /* \"#utility.yul\":6057:6238   */\n      pop\n      jump\t// out\n        /* \"#utility.yul\":6244:6610   */\n    tag_183:\n        /* \"#utility.yul\":6386:6389   */\n      0x00\n        /* \"#utility.yul\":6407:6474   */\n      tag_271\n        /* \"#utility.yul\":6471:6473   */\n      0x1f\n        /* \"#utility.yul\":6466:6469   */\n      dup4\n        /* \"#utility.yul\":6407:6474   */\n      tag_181\n      jump\t// in\n    tag_271:\n        /* \"#utility.yul\":6400:6474   */\n      swap2\n      pop\n        /* \"#utility.yul\":6483:6576   */\n      tag_272\n        /* \"#utility.yul\":6572:6575   */\n      dup3\n        /* \"#utility.yul\":6483:6576   */\n      tag_182\n      jump\t// in\n    tag_272:\n        /* \"#utility.yul\":6601:6603   */\n      0x20\n        /* \"#utility.yul\":6596:6599   */\n      dup3\n        /* \"#utility.yul\":6592:6604   */\n      add\n        /* \"#utility.yul\":6585:6604   */\n      swap1\n      pop\n        /* \"#utility.yul\":6244:6610   */\n      swap2\n      swap1\n      pop\n      jump\t// out\n        /* \"#utility.yul\":6616:7035   */\n    tag_87:\n        /* \"#utility.yul\":6782:6786   */\n      0x00\n        /* \"#utility.yul\":6820:6822   */\n      0x20\n        /* \"#utility.yul\":6809:6818   */\n      dup3\n        /* \"#utility.yul\":6805:6823   */\n      add\n        /* \"#utility.yul\":6797:6823   */\n      swap1\n      pop\n        /* \"#utility.yul\":6869:6878   */\n      dup2\n        /* \"#utility.yul\":6863:6867   */\n      dup2\n        /* \"#utility.yul\":6859:6879   */\n      sub\n        /* \"#utility.yul\":6855:6856   */\n      0x00\n        /* \"#utility.yul\":6844:6853   */\n      dup4\n        /* \"#utility.yul\":6840:6857   */\n      add\n        /* \"#utility.yul\":6833:6880   */\n      mstore\n        /* \"#utility.yul\":6897:7028   */\n      tag_274\n        /* \"#utility.yul\":7023:7027   */\n      dup2\n        /* \"#utility.yul\":6897:7028   */\n      tag_183\n      jump\t// in\n    tag_274:\n        /* \"#utility.yul\":6889:7028   */\n      swap1\n      pop\n        /* \"#utility.yul\":6616:7035   */\n      swap2\n      swap1\n      pop\n      jump\t// out\n        /* \"#utility.yul\":7041:7283   */\n    tag_184:\n        /* \"#utility.yul\":7181:7215   */\n      0x4d7573742068617665206120736f75726365206f662072616e646f6d6e657373\n        /* \"#utility.yul\":7177:7178   */\n      0x00\n        /* \"#utility.yul\":7169:7175   */\n      dup3\n        /* \"#utility.yul\":7165:7179   */\n      add\n        /* \"#utility.yul\":7158:7216   */\n      mstore\n        /* \"#utility.yul\":7250:7275   */\n      0x206265666f72652063686f6f73696e672077696e6e6572000000000000000000\n        /* \"#utility.yul\":7245:7247   */\n      0x20\n        /* \"#utility.yul\":7237:7243   */\n      dup3\n        /* \"#utility.yul\":7233:7248   */\n      add\n        /* \"#utility.yul\":7226:7276   */\n      mstore\n        /* \"#utility.yul\":7041:7283   */\n      pop\n      jump\t// out\n        /* \"#utility.yul\":7289:7655   */\n    tag_185:\n        /* \"#utility.yul\":7431:7434   */\n      0x00\n        /* \"#utility.yul\":7452:7519   */\n      tag_277\n        /* \"#utility.yul\":7516:7518   */\n      0x37\n        /* \"#utility.yul\":7511:7514   */\n      dup4\n        /* \"#utility.yul\":7452:7519   */\n      tag_181\n      jump\t// in\n    tag_277:\n        /* \"#utility.yul\":7445:7519   */\n      swap2\n      pop\n        /* \"#utility.yul\":7528:7621   */\n      tag_278\n        /* \"#utility.yul\":7617:7620   */\n      dup3\n        /* \"#utility.yul\":7528:7621   */\n      tag_184\n      jump\t// in\n    tag_278:\n        /* \"#utility.yul\":7646:7648   */\n      0x40\n        /* \"#utility.yul\":7641:7644   */\n      dup3\n        /* \"#utility.yul\":7637:7649   */\n      add\n        /* \"#utility.yul\":7630:7649   */\n      swap1\n      pop\n        /* \"#utility.yul\":7289:7655   */\n      swap2\n      swap1\n      pop\n      jump\t// out\n        /* \"#utility.yul\":7661:8080   */\n    tag_93:\n        /* \"#utility.yul\":7827:7831   */\n      0x00\n        /* \"#utility.yul\":7865:7867   */\n      0x20\n        /* \"#utility.yul\":7854:7863   */\n      dup3\n        /* \"#utility.yul\":7850:7868   */\n      add\n        /* \"#utility.yul\":7842:7868   */\n      swap1\n      pop\n        /* \"#utility.yul\":7914:7923   */\n      dup2\n        /* \"#utility.yul\":7908:7912   */\n      dup2\n        /* \"#utility.yul\":7904:7924   */\n      sub\n        /* \"#utility.yul\":7900:7901   */\n      0x00\n        /* \"#utility.yul\":7889:7898   */\n      dup4\n        /* \"#utility.yul\":7885:7902   */\n      add\n        /* \"#utility.yul\":7878:7925   */\n      mstore\n        /* \"#utility.yul\":7942:8073   */\n      tag_280\n        /* \"#utility.yul\":8068:8072   */\n      dup2\n        /* \"#utility.yul\":7942:8073   */\n      tag_185\n      jump\t// in\n    tag_280:\n        /* \"#utility.yul\":7934:8073   */\n      swap1\n      pop\n        /* \"#utility.yul\":7661:8080   */\n      swap2\n      swap1\n      pop\n      jump\t// out\n        /* \"#utility.yul\":8086:8266   */\n    tag_186:\n        /* \"#utility.yul\":8134:8211   */\n      0x4e487b7100000000000000000000000000000000000000000000000000000000\n        /* \"#utility.yul\":8131:8132   */\n      0x00\n        /* \"#utility.yul\":8124:8212   */\n      mstore\n        /* \"#utility.yul\":8231:8235   */\n      0x12\n        /* \"#utility.yul\":8228:8229   */\n      0x04\n        /* \"#utility.yul\":8221:8236   */\n      mstore\n        /* \"#utility.yul\":8255:8259   */\n      0x24\n        /* \"#utility.yul\":8252:8253   */\n      0x00\n        /* \"#utility.yul\":8245:8260   */\n      revert\n        /* \"#utility.yul\":8272:8448   */\n    tag_95:\n        /* \"#utility.yul\":8304:8305   */\n      0x00\n        /* \"#utility.yul\":8321:8341   */\n      tag_283\n        /* \"#utility.yul\":8339:8340   */\n      dup3\n        /* \"#utility.yul\":8321:8341   */\n      tag_158\n      jump\t// in\n    tag_283:\n        /* \"#utility.yul\":8316:8341   */\n      swap2\n      pop\n        /* \"#utility.yul\":8355:8375   */\n      tag_284\n        /* \"#utility.yul\":8373:8374   */\n      dup4\n        /* \"#utility.yul\":8355:8375   */\n      tag_158\n      jump\t// in\n    tag_284:\n        /* \"#utility.yul\":8350:8375   */\n      swap3\n      pop\n        /* \"#utility.yul\":8394:8395   */\n      dup3\n        /* \"#utility.yul\":8384:8419   */\n      tag_285\n      jumpi\n        /* \"#utility.yul\":8399:8417   */\n      tag_286\n      tag_186\n      jump\t// in\n    tag_286:\n        /* \"#utility.yul\":8384:8419   */\n    tag_285:\n        /* \"#utility.yul\":8440:8441   */\n      dup3\n        /* \"#utility.yul\":8437:8438   */\n      dup3\n        /* \"#utility.yul\":8433:8442   */\n      mod\n        /* \"#utility.yul\":8428:8442   */\n      swap1\n      pop\n        /* \"#utility.yul\":8272:8448   */\n      swap3\n      swap2\n      pop\n      pop\n      jump\t// out\n        /* \"#utility.yul\":8454:8634   */\n    tag_98:\n        /* \"#utility.yul\":8502:8579   */\n      0x4e487b7100000000000000000000000000000000000000000000000000000000\n        /* \"#utility.yul\":8499:8500   */\n      0x00\n        /* \"#utility.yul\":8492:8580   */\n      mstore\n        /* \"#utility.yul\":8599:8603   */\n      0x32\n        /* \"#utility.yul\":8596:8597   */\n      0x04\n        /* \"#utility.yul\":8589:8604   */\n      mstore\n        /* \"#utility.yul\":8623:8627   */\n      0x24\n        /* \"#utility.yul\":8620:8621   */\n      0x00\n        /* \"#utility.yul\":8613:8628   */\n      revert\n        /* \"#utility.yul\":8640:8820   */\n    tag_187:\n        /* \"#utility.yul\":8688:8765   */\n      0x4e487b7100000000000000000000000000000000000000000000000000000000\n        /* \"#utility.yul\":8685:8686   */\n      0x00\n        /* \"#utility.yul\":8678:8766   */\n      mstore\n        /* \"#utility.yul\":8785:8789   */\n      0x11\n        /* \"#utility.yul\":8782:8783   */\n      0x04\n        /* \"#utility.yul\":8775:8790   */\n      mstore\n        /* \"#utility.yul\":8809:8813   */\n      0x24\n        /* \"#utility.yul\":8806:8807   */\n      0x00\n        /* \"#utility.yul\":8799:8814   */\n      revert\n        /* \"#utility.yul\":8826:9059   */\n    tag_106:\n        /* \"#utility.yul\":8865:8868   */\n      0x00\n        /* \"#utility.yul\":8888:8912   */\n      tag_290\n        /* \"#utility.yul\":8906:8911   */\n      dup3\n        /* \"#utility.yul\":8888:8912   */\n      tag_158\n      jump\t// in\n    tag_290:\n        /* \"#utility.yul\":8879:8912   */\n      swap2\n      pop\n        /* \"#utility.yul\":8934:9000   */\n      0xffffffffffffffffffffffffffffffffffffffffffffffffffffffffffffffff\n        /* \"#utility.yul\":8927:8932   */\n      dup3\n        /* \"#utility.yul\":8924:9001   */\n      sub\n        /* \"#utility.yul\":8921:9024   */\n      tag_291\n      jumpi\n        /* \"#utility.yul\":9004:9022   */\n      tag_292\n      tag_187\n      jump\t// in\n    tag_292:\n        /* \"#utility.yul\":8921:9024   */\n    tag_291:\n        /* \"#utility.yul\":9051:9052   */\n      0x01\n        /* \"#utility.yul\":9044:9049   */\n      dup3\n        /* \"#utility.yul\":9040:9053   */\n      add\n        /* \"#utility.yul\":9033:9053   */\n      swap1\n      pop\n        /* \"#utility.yul\":8826:9059   */\n      swap2\n      swap1\n      pop\n      jump\t// out\n        /* \"#utility.yul\":9065:9245   */\n    tag_109:\n        /* \"#utility.yul\":9113:9190   */\n      0x4e487b7100000000000000000000000000000000000000000000000000000000\n        /* \"#utility.yul\":9110:9111   */\n      0x00\n        /* \"#utility.yul\":9103:9191   */\n      mstore\n        /* \"#utility.yul\":9210:9214   */\n      0x41\n        /* \"#utility.yul\":9207:9208   */\n      0x04\n        /* \"#utility.yul\":9200:9215   */\n      mstore\n        /* \"#utility.yul\":9234:9238   */\n      0x24\n        /* \"#utility.yul\":9231:9232   */\n      0x00\n        /* \"#utility.yul\":9224:9239   */\n      revert\n        /* \"#utility.yul\":9251:9394   */\n    tag_188:\n        /* \"#utility.yul\":9308:9313   */\n      0x00\n        /* \"#utility.yul\":9339:9345   */\n      dup2\n        /* \"#utility.yul\":9333:9346   */\n      mload\n        /* \"#utility.yul\":9324:9346   */\n      swap1\n      pop\n        /* \"#utility.yul\":9355:9388   */\n      tag_295\n        /* \"#utility.yul\":9382:9387   */\n      dup2\n        /* \"#utility.yul\":9355:9388   */\n      tag_163\n      jump\t// in\n    tag_295:\n        /* \"#utility.yul\":9251:9394   */\n      swap3\n      swap2\n      pop\n      pop\n      jump\t// out\n        /* \"#utility.yul\":9400:9751   */\n    tag_118:\n        /* \"#utility.yul\":9470:9476   */\n      0x00\n        /* \"#utility.yul\":9519:9521   */\n      0x20\n        /* \"#utility.yul\":9507:9516   */\n      dup3\n        /* \"#utility.yul\":9498:9505   */\n      dup5\n        /* \"#utility.yul\":9494:9517   */\n      sub\n        /* \"#utility.yul\":9490:9522   */\n      slt\n        /* \"#utility.yul\":9487:9606   */\n      iszero\n      tag_297\n      jumpi\n        /* \"#utility.yul\":9525:9604   */\n      tag_298\n      tag_161\n      jump\t// in\n    tag_298:\n        /* \"#utility.yul\":9487:9606   */\n    tag_297:\n        /* \"#utility.yul\":9645:9646   */\n      0x00\n        /* \"#utility.yul\":9670:9734   */\n      tag_299\n        /* \"#utility.yul\":9726:9733   */\n      dup5\n        /* \"#utility.yul\":9717:9723   */\n      dup3\n        /* \"#utility.yul\":9706:9715   */\n      dup6\n        /* \"#utility.yul\":9702:9724   */\n      add\n        /* \"#utility.yul\":9670:9734   */\n      tag_188\n      jump\t// in\n    tag_299:\n        /* \"#utility.yul\":9660:9734   */\n      swap2\n      pop\n        /* \"#utility.yul\":9616:9744   */\n      pop\n        /* \"#utility.yul\":9400:9751   */\n      swap3\n      swap2\n      pop\n      pop\n      jump\t// out\n        /* \"#utility.yul\":9757:9934   */\n    tag_189:\n        /* \"#utility.yul\":9897:9926   */\n      0x4e6f7420656e6f756768204c494e4b20696e20636f6e74726163740000000000\n        /* \"#utility.yul\":9893:9894   */\n      0x00\n        /* \"#utility.yul\":9885:9891   */\n      dup3\n        /* \"#utility.yul\":9881:9895   */\n      add\n        /* \"#utility.yul\":9874:9927   */\n      mstore\n        /* \"#utility.yul\":9757:9934   */\n      pop\n      jump\t// out\n        /* \"#utility.yul\":9940:10306   */\n    tag_190:\n        /* \"#utility.yul\":10082:10085   */\n      0x00\n        /* \"#utility.yul\":10103:10170   */\n      tag_302\n        /* \"#utility.yul\":10167:10169   */\n      0x1b\n        /* \"#utility.yul\":10162:10165   */\n      dup4\n        /* \"#utility.yul\":10103:10170   */\n      tag_181\n      jump\t// in\n    tag_302:\n        /* \"#utility.yul\":10096:10170   */\n      swap2\n      pop\n        /* \"#utility.yul\":10179:10272   */\n      tag_303\n        /* \"#utility.yul\":10268:10271   */\n      dup3\n        /* \"#utility.yul\":10179:10272   */\n      tag_189\n      jump\t// in\n    tag_303:\n        /* \"#utility.yul\":10297:10299   */\n      0x20\n        /* \"#utility.yul\":10292:10295   */\n      dup3\n        /* \"#utility.yul\":10288:10300   */\n      add\n        /* \"#utility.yul\":10281:10300   */\n      swap1\n      pop\n        /* \"#utility.yul\":9940:10306   */\n      swap2\n      swap1\n      pop\n      jump\t// out\n        /* \"#utility.yul\":10312:10731   */\n    tag_121:\n        /* \"#utility.yul\":10478:10482   */\n      0x00\n        /* \"#utility.yul\":10516:10518   */\n      0x20\n        /* \"#utility.yul\":10505:10514   */\n      dup3\n        /* \"#utility.yul\":10501:10519   */\n      add\n        /* \"#utility.yul\":10493:10519   */\n      swap1\n      pop\n        /* \"#utility.yul\":10565:10574   */\n      dup2\n        /* \"#utility.yul\":10559:10563   */\n      dup2\n        /* \"#utility.yul\":10555:10575   */\n      sub\n        /* \"#utility.yul\":10551:10552   */\n      0x00\n        /* \"#utility.yul\":10540:10549   */\n      dup4\n        /* \"#utility.yul\":10536:10553   */\n      add\n        /* \"#utility.yul\":10529:10576   */\n      mstore\n        /* \"#utility.yul\":10593:10724   */\n      tag_305\n        /* \"#utility.yul\":10719:10723   */\n      dup2\n        /* \"#utility.yul\":10593:10724   */\n      tag_190\n      jump\t// in\n    tag_305:\n        /* \"#utility.yul\":10585:10724   */\n      swap1\n      pop\n        /* \"#utility.yul\":10312:10731   */\n      swap2\n      swap1\n      pop\n      jump\t// out\n        /* \"#utility.yul\":10737:11069   */\n    tag_132:\n        /* \"#utility.yul\":10858:10862   */\n      0x00\n        /* \"#utility.yul\":10896:10898   */\n      0x40\n        /* \"#utility.yul\":10885:10894   */\n      dup3\n        /* \"#utility.yul\":10881:10899   */\n      add\n        /* \"#utility.yul\":10873:10899   */\n      swap1\n      pop\n        /* \"#utility.yul\":10909:10980   */\n      tag_307\n        /* \"#utility.yul\":10977:10978   */\n      0x00\n        /* \"#utility.yul\":10966:10975   */\n      dup4\n        /* \"#utility.yul\":10962:10979   */\n      add\n        /* \"#utility.yul\":10953:10959   */\n      dup6\n        /* \"#utility.yul\":10909:10980   */\n      tag_180\n      jump\t// in\n    tag_307:\n        /* \"#utility.yul\":10990:11062   */\n      tag_308\n        /* \"#utility.yul\":11058:11060   */\n      0x20\n        /* \"#utility.yul\":11047:11056   */\n      dup4\n        /* \"#utility.yul\":11043:11061   */\n      add\n        /* \"#utility.yul\":11034:11040   */\n      dup5\n        /* \"#utility.yul\":10990:11062   */\n      tag_159\n      jump\t// in\n    tag_308:\n        /* \"#utility.yul\":10737:11069   */\n      swap4\n      swap3\n      pop\n      pop\n      pop\n      jump\t// out\n        /* \"#utility.yul\":11075:11173   */\n    tag_191:\n        /* \"#utility.yul\":11126:11132   */\n      0x00\n        /* \"#utility.yul\":11160:11165   */\n      dup2\n        /* \"#utility.yul\":11154:11166   */\n      mload\n        /* \"#utility.yul\":11144:11166   */\n      swap1\n      pop\n        /* \"#utility.yul\":11075:11173   */\n      swap2\n      swap1\n      pop\n      jump\t// out\n        /* \"#utility.yul\":11179:11347   */\n    tag_192:\n        /* \"#utility.yul\":11262:11273   */\n      0x00\n        /* \"#utility.yul\":11296:11302   */\n      dup3\n        /* \"#utility.yul\":11291:11294   */\n      dup3\n        /* \"#utility.yul\":11284:11303   */\n      mstore\n        /* \"#utility.yul\":11336:11340   */\n      0x20\n        /* \"#utility.yul\":11331:11334   */\n      dup3\n        /* \"#utility.yul\":11327:11341   */\n      add\n        /* \"#utility.yul\":11312:11341   */\n      swap1\n      pop\n        /* \"#utility.yul\":11179:11347   */\n      swap3\n      swap2\n      pop\n      pop\n      jump\t// out\n        /* \"#utility.yul\":11353:11599   */\n    tag_193:\n        /* \"#utility.yul\":11434:11435   */\n      0x00\n        /* \"#utility.yul\":11444:11557   */\n    tag_312:\n        /* \"#utility.yul\":11458:11464   */\n      dup4\n        /* \"#utility.yul\":11455:11456   */\n      dup2\n        /* \"#utility.yul\":11452:11465   */\n      lt\n        /* \"#utility.yul\":11444:11557   */\n      iszero\n      tag_314\n      jumpi\n        /* \"#utility.yul\":11543:11544   */\n      dup1\n        /* \"#utility.yul\":11538:11541   */\n      dup3\n        /* \"#utility.yul\":11534:11545   */\n      add\n        /* \"#utility.yul\":11528:11546   */\n      mload\n        /* \"#utility.yul\":11524:11525   */\n      dup2\n        /* \"#utility.yul\":11519:11522   */\n      dup5\n        /* \"#utility.yul\":11515:11526   */\n      add\n        /* \"#utility.yul\":11508:11547   */\n      mstore\n        /* \"#utility.yul\":11480:11482   */\n      0x20\n        /* \"#utility.yul\":11477:11478   */\n      dup2\n        /* \"#utility.yul\":11473:11483   */\n      add\n        /* \"#utility.yul\":11468:11483   */\n      swap1\n      pop\n        /* \"#utility.yul\":11444:11557   */\n      jump(tag_312)\n    tag_314:\n        /* \"#utility.yul\":11591:11592   */\n      0x00\n        /* \"#utility.yul\":11582:11588   */\n      dup5\n        /* \"#utility.yul\":11577:11580   */\n      dup5\n        /* \"#utility.yul\":11573:11589   */\n      add\n        /* \"#utility.yul\":11566:11593   */\n      mstore\n        /* \"#utility.yul\":11415:11599   */\n      pop\n        /* \"#utility.yul\":11353:11599   */\n      pop\n      pop\n      pop\n      jump\t// out\n        /* \"#utility.yul\":11605:11707   */\n    tag_194:\n        /* \"#utility.yul\":11646:11652   */\n      0x00\n        /* \"#utility.yul\":11697:11699   */\n      0x1f\n        /* \"#utility.yul\":11693:11700   */\n      not\n        /* \"#utility.yul\":11688:11690   */\n      0x1f\n        /* \"#utility.yul\":11681:11686   */\n      dup4\n        /* \"#utility.yul\":11677:11691   */\n      add\n        /* \"#utility.yul\":11673:11701   */\n      and\n        /* \"#utility.yul\":11663:11701   */\n      swap1\n      pop\n        /* \"#utility.yul\":11605:11707   */\n      swap2\n      swap1\n      pop\n      jump\t// out\n        /* \"#utility.yul\":11713:12086   */\n    tag_195:\n        /* \"#utility.yul\":11799:11802   */\n      0x00\n        /* \"#utility.yul\":11827:11865   */\n      tag_317\n        /* \"#utility.yul\":11859:11864   */\n      dup3\n        /* \"#utility.yul\":11827:11865   */\n      tag_191\n      jump\t// in\n    tag_317:\n        /* \"#utility.yul\":11881:11951   */\n      tag_318\n        /* \"#utility.yul\":11944:11950   */\n      dup2\n        /* \"#utility.yul\":11939:11942   */\n      dup6\n        /* \"#utility.yul\":11881:11951   */\n      tag_192\n      jump\t// in\n    tag_318:\n        /* \"#utility.yul\":11874:11951   */\n      swap4\n      pop\n        /* \"#utility.yul\":11960:12025   */\n      tag_319\n        /* \"#utility.yul\":12018:12024   */\n      dup2\n        /* \"#utility.yul\":12013:12016   */\n      dup6\n        /* \"#utility.yul\":12006:12010   */\n      0x20\n        /* \"#utility.yul\":11999:12004   */\n      dup7\n        /* \"#utility.yul\":11995:12011   */\n      add\n        /* \"#utility.yul\":11960:12025   */\n      tag_193\n      jump\t// in\n    tag_319:\n        /* \"#utility.yul\":12050:12079   */\n      tag_320\n        /* \"#utility.yul\":12072:12078   */\n      dup2\n        /* \"#utility.yul\":12050:12079   */\n      tag_194\n      jump\t// in\n    tag_320:\n        /* \"#utility.yul\":12045:12048   */\n      dup5\n        /* \"#utility.yul\":12041:12080   */\n      add\n        /* \"#utility.yul\":12034:12080   */\n      swap2\n      pop\n        /* \"#utility.yul\":11803:12086   */\n      pop\n        /* \"#utility.yul\":11713:12086   */\n      swap3\n      swap2\n      pop\n      pop\n      jump\t// out\n        /* \"#utility.yul\":12092:12621   */\n    tag_134:\n        /* \"#utility.yul\":12259:12263   */\n      0x00\n        /* \"#utility.yul\":12297:12299   */\n      0x60\n        /* \"#utility.yul\":12286:12295   */\n      dup3\n        /* \"#utility.yul\":12282:12300   */\n      add\n        /* \"#utility.yul\":12274:12300   */\n      swap1\n      pop\n        /* \"#utility.yul\":12310:12381   */\n      tag_322\n        /* \"#utility.yul\":12378:12379   */\n      0x00\n        /* \"#utility.yul\":12367:12376   */\n      dup4\n        /* \"#utility.yul\":12363:12380   */\n      add\n        /* \"#utility.yul\":12354:12360   */\n      dup7\n        /* \"#utility.yul\":12310:12381   */\n      tag_176\n      jump\t// in\n    tag_322:\n        /* \"#utility.yul\":12391:12463   */\n      tag_323\n        /* \"#utility.yul\":12459:12461   */\n      0x20\n        /* \"#utility.yul\":12448:12457   */\n      dup4\n        /* \"#utility.yul\":12444:12462   */\n      add\n        /* \"#utility.yul\":12435:12441   */\n      dup6\n        /* \"#utility.yul\":12391:12463   */\n      tag_159\n      jump\t// in\n    tag_323:\n        /* \"#utility.yul\":12510:12519   */\n      dup2\n        /* \"#utility.yul\":12504:12508   */\n      dup2\n        /* \"#utility.yul\":12500:12520   */\n      sub\n        /* \"#utility.yul\":12495:12497   */\n      0x40\n        /* \"#utility.yul\":12484:12493   */\n      dup4\n        /* \"#utility.yul\":12480:12498   */\n      add\n        /* \"#utility.yul\":12473:12521   */\n      mstore\n        /* \"#utility.yul\":12538:12614   */\n      tag_324\n        /* \"#utility.yul\":12609:12613   */\n      dup2\n        /* \"#utility.yul\":12600:12606   */\n      dup5\n        /* \"#utility.yul\":12538:12614   */\n      tag_195\n      jump\t// in\n    tag_324:\n        /* \"#utility.yul\":12530:12614   */\n      swap1\n      pop\n        /* \"#utility.yul\":12092:12621   */\n      swap5\n      swap4\n      pop\n      pop\n      pop\n      pop\n      jump\t// out\n        /* \"#utility.yul\":12627:12717   */\n    tag_196:\n        /* \"#utility.yul\":12661:12668   */\n      0x00\n        /* \"#utility.yul\":12704:12709   */\n      dup2\n        /* \"#utility.yul\":12697:12710   */\n      iszero\n        /* \"#utility.yul\":12690:12711   */\n      iszero\n        /* \"#utility.yul\":12679:12711   */\n      swap1\n      pop\n        /* \"#utility.yul\":12627:12717   */\n      swap2\n      swap1\n      pop\n      jump\t// out\n        /* \"#utility.yul\":12723:12839   */\n    tag_197:\n        /* \"#utility.yul\":12793:12814   */\n      tag_327\n        /* \"#utility.yul\":12808:12813   */\n      dup2\n        /* \"#utility.yul\":12793:12814   */\n      tag_196\n      jump\t// in\n    tag_327:\n        /* \"#utility.yul\":12786:12791   */\n      dup2\n        /* \"#utility.yul\":12783:12815   */\n      eq\n        /* \"#utility.yul\":12773:12833   */\n      tag_328\n      jumpi\n        /* \"#utility.yul\":12829:12830   */\n      0x00\n        /* \"#utility.yul\":12826:12827   */\n      dup1\n        /* \"#utility.yul\":12819:12831   */\n      revert\n        /* \"#utility.yul\":12773:12833   */\n    tag_328:\n        /* \"#utility.yul\":12723:12839   */\n      pop\n      jump\t// out\n        /* \"#utility.yul\":12845:12982   */\n    tag_198:\n        /* \"#utility.yul\":12899:12904   */\n      0x00\n        /* \"#utility.yul\":12930:12936   */\n      dup2\n        /* \"#utility.yul\":12924:12937   */\n      mload\n        /* \"#utility.yul\":12915:12937   */\n      swap1\n      pop\n        /* \"#utility.yul\":12946:12976   */\n      tag_330\n        /* \"#utility.yul\":12970:12975   */\n      dup2\n        /* \"#utility.yul\":12946:12976   */\n      tag_197\n      jump\t// in\n    tag_330:\n        /* \"#utility.yul\":12845:12982   */\n      swap3\n      swap2\n      pop\n      pop\n      jump\t// out\n        /* \"#utility.yul\":12988:13333   */\n    tag_138:\n        /* \"#utility.yul\":13055:13061   */\n      0x00\n        /* \"#utility.yul\":13104:13106   */\n      0x20\n        /* \"#utility.yul\":13092:13101   */\n      dup3\n        /* \"#utility.yul\":13083:13090   */\n      dup5\n        /* \"#utility.yul\":13079:13102   */\n      sub\n        /* \"#utility.yul\":13075:13107   */\n      slt\n        /* \"#utility.yul\":13072:13191   */\n      iszero\n      tag_332\n      jumpi\n        /* \"#utility.yul\":13110:13189   */\n      tag_333\n      tag_161\n      jump\t// in\n    tag_333:\n        /* \"#utility.yul\":13072:13191   */\n    tag_332:\n        /* \"#utility.yul\":13230:13231   */\n      0x00\n        /* \"#utility.yul\":13255:13316   */\n      tag_334\n        /* \"#utility.yul\":13308:13315   */\n      dup5\n        /* \"#utility.yul\":13299:13305   */\n      dup3\n        /* \"#utility.yul\":13288:13297   */\n      dup6\n        /* \"#utility.yul\":13284:13306   */\n      add\n        /* \"#utility.yul\":13255:13316   */\n      tag_198\n      jump\t// in\n    tag_334:\n        /* \"#utility.yul\":13245:13316   */\n      swap2\n      pop\n        /* \"#utility.yul\":13201:13326   */\n      pop\n        /* \"#utility.yul\":12988:13333   */\n      swap3\n      swap2\n      pop\n      pop\n      jump\t// out\n        /* \"#utility.yul\":13339:13530   */\n    tag_142:\n        /* \"#utility.yul\":13379:13382   */\n      0x00\n        /* \"#utility.yul\":13398:13418   */\n      tag_336\n        /* \"#utility.yul\":13416:13417   */\n      dup3\n        /* \"#utility.yul\":13398:13418   */\n      tag_158\n      jump\t// in\n    tag_336:\n        /* \"#utility.yul\":13393:13418   */\n      swap2\n      pop\n        /* \"#utility.yul\":13432:13452   */\n      tag_337\n        /* \"#utility.yul\":13450:13451   */\n      dup4\n        /* \"#utility.yul\":13432:13452   */\n      tag_158\n      jump\t// in\n    tag_337:\n        /* \"#utility.yul\":13427:13452   */\n      swap3\n      pop\n        /* \"#utility.yul\":13475:13476   */\n      dup3\n        /* \"#utility.yul\":13472:13473   */\n      dup3\n        /* \"#utility.yul\":13468:13477   */\n      add\n        /* \"#utility.yul\":13461:13477   */\n      swap1\n      pop\n        /* \"#utility.yul\":13496:13499   */\n      dup1\n        /* \"#utility.yul\":13493:13494   */\n      dup3\n        /* \"#utility.yul\":13490:13500   */\n      gt\n        /* \"#utility.yul\":13487:13523   */\n      iszero\n      tag_338\n      jumpi\n        /* \"#utility.yul\":13503:13521   */\n      tag_339\n      tag_187\n      jump\t// in\n    tag_339:\n        /* \"#utility.yul\":13487:13523   */\n    tag_338:\n        /* \"#utility.yul\":13339:13530   */\n      swap3\n      swap2\n      pop\n      pop\n      jump\t// out\n        /* \"#utility.yul\":13536:14089   */\n    tag_147:\n        /* \"#utility.yul\":13713:13717   */\n      0x00\n        /* \"#utility.yul\":13751:13754   */\n      0x80\n        /* \"#utility.yul\":13740:13749   */\n      dup3\n        /* \"#utility.yul\":13736:13755   */\n      add\n        /* \"#utility.yul\":13728:13755   */\n      swap1\n      pop\n        /* \"#utility.yul\":13765:13836   */\n      tag_341\n        /* \"#utility.yul\":13833:13834   */\n      0x00\n        /* \"#utility.yul\":13822:13831   */\n      dup4\n        /* \"#utility.yul\":13818:13835   */\n      add\n        /* \"#utility.yul\":13809:13815   */\n      dup8\n        /* \"#utility.yul\":13765:13836   */\n      tag_180\n      jump\t// in\n    tag_341:\n        /* \"#utility.yul\":13846:13918   */\n      tag_342\n        /* \"#utility.yul\":13914:13916   */\n      0x20\n        /* \"#utility.yul\":13903:13912   */\n      dup4\n        /* \"#utility.yul\":13899:13917   */\n      add\n        /* \"#utility.yul\":13890:13896   */\n      dup7\n        /* \"#utility.yul\":13846:13918   */\n      tag_159\n      jump\t// in\n    tag_342:\n        /* \"#utility.yul\":13928:14000   */\n      tag_343\n        /* \"#utility.yul\":13996:13998   */\n      0x40\n        /* \"#utility.yul\":13985:13994   */\n      dup4\n        /* \"#utility.yul\":13981:13999   */\n      add\n        /* \"#utility.yul\":13972:13978   */\n      dup6\n        /* \"#utility.yul\":13928:14000   */\n      tag_176\n      jump\t// in\n    tag_343:\n        /* \"#utility.yul\":14010:14082   */\n      tag_344\n        /* \"#utility.yul\":14078:14080   */\n      0x60\n        /* \"#utility.yul\":14067:14076   */\n      dup4\n        /* \"#utility.yul\":14063:14081   */\n      add\n        /* \"#utility.yul\":14054:14060   */\n      dup5\n        /* \"#utility.yul\":14010:14082   */\n      tag_159\n      jump\t// in\n    tag_344:\n        /* \"#utility.yul\":13536:14089   */\n      swap6\n      swap5\n      pop\n      pop\n      pop\n      pop\n      pop\n      jump\t// out\n        /* \"#utility.yul\":14095:14174   */\n    tag_199:\n        /* \"#utility.yul\":14134:14141   */\n      0x00\n        /* \"#utility.yul\":14163:14168   */\n      dup2\n        /* \"#utility.yul\":14152:14168   */\n      swap1\n      pop\n        /* \"#utility.yul\":14095:14174   */\n      swap2\n      swap1\n      pop\n      jump\t// out\n        /* \"#utility.yul\":14180:14337   */\n    tag_200:\n        /* \"#utility.yul\":14285:14330   */\n      tag_347\n        /* \"#utility.yul\":14305:14329   */\n      tag_348\n        /* \"#utility.yul\":14323:14328   */\n      dup3\n        /* \"#utility.yul\":14305:14329   */\n      tag_177\n      jump\t// in\n    tag_348:\n        /* \"#utility.yul\":14285:14330   */\n      tag_199\n      jump\t// in\n    tag_347:\n        /* \"#utility.yul\":14280:14283   */\n      dup3\n        /* \"#utility.yul\":14273:14331   */\n      mstore\n        /* \"#utility.yul\":14180:14337   */\n      pop\n      pop\n      jump\t// out\n        /* \"#utility.yul\":14343:14422   */\n    tag_201:\n        /* \"#utility.yul\":14382:14389   */\n      0x00\n        /* \"#utility.yul\":14411:14416   */\n      dup2\n        /* \"#utility.yul\":14400:14416   */\n      swap1\n      pop\n        /* \"#utility.yul\":14343:14422   */\n      swap2\n      swap1\n      pop\n      jump\t// out\n        /* \"#utility.yul\":14428:14585   */\n    tag_202:\n        /* \"#utility.yul\":14533:14578   */\n      tag_351\n        /* \"#utility.yul\":14553:14577   */\n      tag_352\n        /* \"#utility.yul\":14571:14576   */\n      dup3\n        /* \"#utility.yul\":14553:14577   */\n      tag_158\n      jump\t// in\n    tag_352:\n        /* \"#utility.yul\":14533:14578   */\n      tag_201\n      jump\t// in\n    tag_351:\n        /* \"#utility.yul\":14528:14531   */\n      dup3\n        /* \"#utility.yul\":14521:14579   */\n      mstore\n        /* \"#utility.yul\":14428:14585   */\n      pop\n      pop\n      jump\t// out\n        /* \"#utility.yul\":14591:14988   */\n    tag_150:\n        /* \"#utility.yul\":14731:14734   */\n      0x00\n        /* \"#utility.yul\":14746:14821   */\n      tag_354\n        /* \"#utility.yul\":14817:14820   */\n      dup3\n        /* \"#utility.yul\":14808:14814   */\n      dup6\n        /* \"#utility.yul\":14746:14821   */\n      tag_200\n      jump\t// in\n    tag_354:\n        /* \"#utility.yul\":14846:14848   */\n      0x20\n        /* \"#utility.yul\":14841:14844   */\n      dup3\n        /* \"#utility.yul\":14837:14849   */\n      add\n        /* \"#utility.yul\":14830:14849   */\n      swap2\n      pop\n        /* \"#utility.yul\":14859:14934   */\n      tag_355\n        /* \"#utility.yul\":14930:14933   */\n      dup3\n        /* \"#utility.yul\":14921:14927   */\n      dup5\n        /* \"#utility.yul\":14859:14934   */\n      tag_202\n      jump\t// in\n    tag_355:\n        /* \"#utility.yul\":14959:14961   */\n      0x20\n        /* \"#utility.yul\":14954:14957   */\n      dup3\n        /* \"#utility.yul\":14950:14962   */\n      add\n        /* \"#utility.yul\":14943:14962   */\n      swap2\n      pop\n        /* \"#utility.yul\":14979:14982   */\n      dup2\n        /* \"#utility.yul\":14972:14982   */\n      swap1\n      pop\n        /* \"#utility.yul\":14591:14988   */\n      swap4\n      swap3\n      pop\n      pop\n      pop\n      jump\t// out\n\n    auxdata: 0xa2646970667358221220814bac75a50ff859e95fcfb5a2c3a36b92fad98eba4184faf33d8dca69c3281f64736f6c63430008110033\n}\n",
				"bytecode": {
					"linkReferences": {},
					"object": "60c060405234801561001057600080fd5b5073271682deb8c4e0901d1a1550ad2e64d568e6990973326c977e6efc84e512bb9c30f76e30c160ed06fb8173ffffffffffffffffffffffffffffffffffffffff1660a08173ffffffffffffffffffffffffffffffffffffffff16815250508073ffffffffffffffffffffffffffffffffffffffff1660808173ffffffffffffffffffffffffffffffffffffffff168152505050507f8af398995b04c28e9951adb9721ef74c74f93e6a478f39e7e0777be13527e7ef60001b60058190555067016345785d8a000060068190555033600160006101000a81548173ffffffffffffffffffffffffffffffffffffffff021916908373ffffffffffffffffffffffffffffffffffffffff160217905550600a60038190555060805160a05161134061015a6000396000818161047a015261090501526000818161071101526108c901526113406000f3fe6080604052600436106100c25760003560e01c80638da5cb5b1161007f578063dbdff2c111610059578063dbdff2c114610244578063e580f47b1461026f578063e97dcb621461029a578063f71d96cb146102a4576100c2565b80638da5cb5b146101d957806394985ddd14610204578063be71248a1461022d576100c2565b806312065fe0146100c7578063281d098d146100f257806342619f661461012f5780635d495aea1461015a5780636d6fe230146101715780638b5b9ccc146101ae575b600080fd5b3480156100d357600080fd5b506100dc6102e1565b6040516100e99190610b44565b60405180910390f35b3480156100fe57600080fd5b5061011960048036038101906101149190610b90565b6102e9565b6040516101269190610bfe565b60405180910390f35b34801561013b57600080fd5b50610144610326565b6040516101519190610b44565b60405180910390f35b34801561016657600080fd5b5061016f61032c565b005b34801561017d57600080fd5b5061019860048036038101906101939190610b90565b610391565b6040516101a59190610bfe565b60405180910390f35b3480156101ba57600080fd5b506101c36103c4565b6040516101d09190610cd7565b60405180910390f35b3480156101e557600080fd5b506101ee610452565b6040516101fb9190610d1a565b60405180910390f35b34801561021057600080fd5b5061022b60048036038101906102269190610d6b565b610478565b005b34801561023957600080fd5b50610242610514565b005b34801561025057600080fd5b5061025961070a565b6040516102669190610dba565b60405180910390f35b34801561027b57600080fd5b506102846107fd565b6040516102919190610b44565b60405180910390f35b6102a2610803565b005b3480156102b057600080fd5b506102cb60048036038101906102c69190610b90565b61087b565b6040516102d89190610bfe565b60405180910390f35b600047905090565b60006004600083815260200190815260200160002060009054906101000a900473ffffffffffffffffffffffffffffffffffffffff169050919050565b60075481565b600160009054906101000a900473ffffffffffffffffffffffffffffffffffffffff1673ffffffffffffffffffffffffffffffffffffffff163373ffffffffffffffffffffffffffffffffffffffff161461038657600080fd5b61038e61070a565b50565b60046020528060005260406000206000915054906101000a900473ffffffffffffffffffffffffffffffffffffffff1681565b6060600280548060200260200160405190810160405280929190818152602001828054801561044857602002820191906000526020600020905b8160009054906101000a900473ffffffffffffffffffffffffffffffffffffffff1673ffffffffffffffffffffffffffffffffffffffff16815260200190600101908083116103fe575b5050505050905090565b600160009054906101000a900473ffffffffffffffffffffffffffffffffffffffff1681565b7f000000000000000000000000000000000000000000000000000000000000000073ffffffffffffffffffffffffffffffffffffffff163373ffffffffffffffffffffffffffffffffffffffff1614610506576040517f08c379a00000000000000000000000000000000000000000000000000000000081526004016104fd90610e32565b60405180910390fd5b61051082826108ba565b5050565b600060075411610559576040517f08c379a000000000000000000000000000000000000000000000000000000000815260040161055090610ec4565b60405180910390fd5b600060028054905060075461056e9190610f13565b90506002818154811061058457610583610f44565b5b9060005260206000200160009054906101000a900473ffffffffffffffffffffffffffffffffffffffff1673ffffffffffffffffffffffffffffffffffffffff166108fc479081150290604051600060405180830381858888f193505050501580156105f4573d6000803e3d6000fd5b506002818154811061060957610608610f44565b5b9060005260206000200160009054906101000a900473ffffffffffffffffffffffffffffffffffffffff1660046000600354815260200190815260200160002060006101000a81548173ffffffffffffffffffffffffffffffffffffffff021916908373ffffffffffffffffffffffffffffffffffffffff1602179055506003600081548092919061069a90610fa2565b9190505550600067ffffffffffffffff8111156106ba576106b9610fea565b5b6040519080825280602002602001820160405280156106e85781602001602082028036833780820191505090505b50600290805190602001906106fe929190610a84565b50600060078190555050565b60006006547f000000000000000000000000000000000000000000000000000000000000000073ffffffffffffffffffffffffffffffffffffffff166370a08231306040518263ffffffff1660e01b81526004016107689190610d1a565b602060405180830381865afa158015610785573d6000803e3d6000fd5b505050506040513d601f19601f820116820180604052508101906107a9919061102e565b10156107ea576040517f08c379a00000000000000000000000000000000000000000000000000000000081526004016107e1906110a7565b60405180910390fd5b6107f86005546006546108c5565b905090565b60035481565b662386f26fc10000341161081657600080fd5b6002339080600181540180825580915050600190039060005260206000200160009091909190916101000a81548173ffffffffffffffffffffffffffffffffffffffff021916908373ffffffffffffffffffffffffffffffffffffffff160217905550565b6002818154811061088b57600080fd5b906000526020600020016000915054906101000a900473ffffffffffffffffffffffffffffffffffffffff1681565b806007819055505050565b60007f000000000000000000000000000000000000000000000000000000000000000073ffffffffffffffffffffffffffffffffffffffff16634000aea07f0000000000000000000000000000000000000000000000000000000000000000848660006040516020016109399291906110c7565b6040516020818303038152906040526040518463ffffffff1660e01b815260040161096693929190611180565b6020604051808303816000875af1158015610985573d6000803e3d6000fd5b505050506040513d601f19601f820116820180604052508101906109a991906111f6565b5060006109cb8460003060008089815260200190815260200160002054610a15565b90506001600080868152602001908152602001600020546109ec9190611223565b60008086815260200190815260200160002081905550610a0c8482610a51565b91505092915050565b600084848484604051602001610a2e9493929190611257565b6040516020818303038152906040528051906020012060001c9050949350505050565b60008282604051602001610a669291906112de565b60405160208183030381529060405280519060200120905092915050565b828054828255906000526020600020908101928215610afd579160200282015b82811115610afc5782518260006101000a81548173ffffffffffffffffffffffffffffffffffffffff021916908373ffffffffffffffffffffffffffffffffffffffff16021790555091602001919060010190610aa4565b5b509050610b0a9190610b0e565b5090565b5b80821115610b27576000816000905550600101610b0f565b5090565b6000819050919050565b610b3e81610b2b565b82525050565b6000602082019050610b596000830184610b35565b92915050565b600080fd5b610b6d81610b2b565b8114610b7857600080fd5b50565b600081359050610b8a81610b64565b92915050565b600060208284031215610ba657610ba5610b5f565b5b6000610bb484828501610b7b565b91505092915050565b600073ffffffffffffffffffffffffffffffffffffffff82169050919050565b6000610be882610bbd565b9050919050565b610bf881610bdd565b82525050565b6000602082019050610c136000830184610bef565b92915050565b600081519050919050565b600082825260208201905092915050565b6000819050602082019050919050565b610c4e81610bdd565b82525050565b6000610c608383610c45565b60208301905092915050565b6000602082019050919050565b6000610c8482610c19565b610c8e8185610c24565b9350610c9983610c35565b8060005b83811015610cca578151610cb18882610c54565b9750610cbc83610c6c565b925050600181019050610c9d565b5085935050505092915050565b60006020820190508181036000830152610cf18184610c79565b905092915050565b6000610d0482610bbd565b9050919050565b610d1481610cf9565b82525050565b6000602082019050610d2f6000830184610d0b565b92915050565b6000819050919050565b610d4881610d35565b8114610d5357600080fd5b50565b600081359050610d6581610d3f565b92915050565b60008060408385031215610d8257610d81610b5f565b5b6000610d9085828601610d56565b9250506020610da185828601610b7b565b9150509250929050565b610db481610d35565b82525050565b6000602082019050610dcf6000830184610dab565b92915050565b600082825260208201905092915050565b7f4f6e6c7920565246436f6f7264696e61746f722063616e2066756c66696c6c00600082015250565b6000610e1c601f83610dd5565b9150610e2782610de6565b602082019050919050565b60006020820190508181036000830152610e4b81610e0f565b9050919050565b7f4d7573742068617665206120736f75726365206f662072616e646f6d6e65737360008201527f206265666f72652063686f6f73696e672077696e6e6572000000000000000000602082015250565b6000610eae603783610dd5565b9150610eb982610e52565b604082019050919050565b60006020820190508181036000830152610edd81610ea1565b9050919050565b7f4e487b7100000000000000000000000000000000000000000000000000000000600052601260045260246000fd5b6000610f1e82610b2b565b9150610f2983610b2b565b925082610f3957610f38610ee4565b5b828206905092915050565b7f4e487b7100000000000000000000000000000000000000000000000000000000600052603260045260246000fd5b7f4e487b7100000000000000000000000000000000000000000000000000000000600052601160045260246000fd5b6000610fad82610b2b565b91507fffffffffffffffffffffffffffffffffffffffffffffffffffffffffffffffff8203610fdf57610fde610f73565b5b600182019050919050565b7f4e487b7100000000000000000000000000000000000000000000000000000000600052604160045260246000fd5b60008151905061102881610b64565b92915050565b60006020828403121561104457611043610b5f565b5b600061105284828501611019565b91505092915050565b7f4e6f7420656e6f756768204c494e4b20696e20636f6e74726163740000000000600082015250565b6000611091601b83610dd5565b915061109c8261105b565b602082019050919050565b600060208201905081810360008301526110c081611084565b9050919050565b60006040820190506110dc6000830185610dab565b6110e96020830184610b35565b9392505050565b600081519050919050565b600082825260208201905092915050565b60005b8381101561112a57808201518184015260208101905061110f565b60008484015250505050565b6000601f19601f8301169050919050565b6000611152826110f0565b61115c81856110fb565b935061116c81856020860161110c565b61117581611136565b840191505092915050565b60006060820190506111956000830186610d0b565b6111a26020830185610b35565b81810360408301526111b48184611147565b9050949350505050565b60008115159050919050565b6111d3816111be565b81146111de57600080fd5b50565b6000815190506111f0816111ca565b92915050565b60006020828403121561120c5761120b610b5f565b5b600061121a848285016111e1565b91505092915050565b600061122e82610b2b565b915061123983610b2b565b925082820190508082111561125157611250610f73565b5b92915050565b600060808201905061126c6000830187610dab565b6112796020830186610b35565b6112866040830185610d0b565b6112936060830184610b35565b95945050505050565b6000819050919050565b6112b76112b282610d35565b61129c565b82525050565b6000819050919050565b6112d86112d382610b2b565b6112bd565b82525050565b60006112ea82856112a6565b6020820191506112fa82846112c7565b602082019150819050939250505056fea2646970667358221220814bac75a50ff859e95fcfb5a2c3a36b92fad98eba4184faf33d8dca69c3281f64736f6c63430008110033",
					"opcodes": "PUSH1 0xC0 PUSH1 0x40 MSTORE CALLVALUE DUP1 ISZERO PUSH2 0x10 JUMPI PUSH1 0x0 DUP1 REVERT JUMPDEST POP PUSH20 0x271682DEB8C4E0901D1A1550AD2E64D568E69909 PUSH20 0x326C977E6EFC84E512BB9C30F76E30C160ED06FB DUP2 PUSH20 0xFFFFFFFFFFFFFFFFFFFFFFFFFFFFFFFFFFFFFFFF AND PUSH1 0xA0 DUP2 PUSH20 0xFFFFFFFFFFFFFFFFFFFFFFFFFFFFFFFFFFFFFFFF AND DUP2 MSTORE POP POP DUP1 PUSH20 0xFFFFFFFFFFFFFFFFFFFFFFFFFFFFFFFFFFFFFFFF AND PUSH1 0x80 DUP2 PUSH20 0xFFFFFFFFFFFFFFFFFFFFFFFFFFFFFFFFFFFFFFFF AND DUP2 MSTORE POP POP POP POP PUSH32 0x8AF398995B04C28E9951ADB9721EF74C74F93E6A478F39E7E0777BE13527E7EF PUSH1 0x0 SHL PUSH1 0x5 DUP2 SWAP1 SSTORE POP PUSH8 0x16345785D8A0000 PUSH1 0x6 DUP2 SWAP1 SSTORE POP CALLER PUSH1 0x1 PUSH1 0x0 PUSH2 0x100 EXP DUP2 SLOAD DUP2 PUSH20 0xFFFFFFFFFFFFFFFFFFFFFFFFFFFFFFFFFFFFFFFF MUL NOT AND SWAP1 DUP4 PUSH20 0xFFFFFFFFFFFFFFFFFFFFFFFFFFFFFFFFFFFFFFFF AND MUL OR SWAP1 SSTORE POP PUSH1 0xA PUSH1 0x3 DUP2 SWAP1 SSTORE POP PUSH1 0x80 MLOAD PUSH1 0xA0 MLOAD PUSH2 0x1340 PUSH2 0x15A PUSH1 0x0 CODECOPY PUSH1 0x0 DUP2 DUP2 PUSH2 0x47A ADD MSTORE PUSH2 0x905 ADD MSTORE PUSH1 0x0 DUP2 DUP2 PUSH2 0x711 ADD MSTORE PUSH2 0x8C9 ADD MSTORE PUSH2 0x1340 PUSH1 0x0 RETURN INVALID PUSH1 0x80 PUSH1 0x40 MSTORE PUSH1 0x4 CALLDATASIZE LT PUSH2 0xC2 JUMPI PUSH1 0x0 CALLDATALOAD PUSH1 0xE0 SHR DUP1 PUSH4 0x8DA5CB5B GT PUSH2 0x7F JUMPI DUP1 PUSH4 0xDBDFF2C1 GT PUSH2 0x59 JUMPI DUP1 PUSH4 0xDBDFF2C1 EQ PUSH2 0x244 JUMPI DUP1 PUSH4 0xE580F47B EQ PUSH2 0x26F JUMPI DUP1 PUSH4 0xE97DCB62 EQ PUSH2 0x29A JUMPI DUP1 PUSH4 0xF71D96CB EQ PUSH2 0x2A4 JUMPI PUSH2 0xC2 JUMP JUMPDEST DUP1 PUSH4 0x8DA5CB5B EQ PUSH2 0x1D9 JUMPI DUP1 PUSH4 0x94985DDD EQ PUSH2 0x204 JUMPI DUP1 PUSH4 0xBE71248A EQ PUSH2 0x22D JUMPI PUSH2 0xC2 JUMP JUMPDEST DUP1 PUSH4 0x12065FE0 EQ PUSH2 0xC7 JUMPI DUP1 PUSH4 0x281D098D EQ PUSH2 0xF2 JUMPI DUP1 PUSH4 0x42619F66 EQ PUSH2 0x12F JUMPI DUP1 PUSH4 0x5D495AEA EQ PUSH2 0x15A JUMPI DUP1 PUSH4 0x6D6FE230 EQ PUSH2 0x171 JUMPI DUP1 PUSH4 0x8B5B9CCC EQ PUSH2 0x1AE JUMPI JUMPDEST PUSH1 0x0 DUP1 REVERT JUMPDEST CALLVALUE DUP1 ISZERO PUSH2 0xD3 JUMPI PUSH1 0x0 DUP1 REVERT JUMPDEST POP PUSH2 0xDC PUSH2 0x2E1 JUMP JUMPDEST PUSH1 0x40 MLOAD PUSH2 0xE9 SWAP2 SWAP1 PUSH2 0xB44 JUMP JUMPDEST PUSH1 0x40 MLOAD DUP1 SWAP2 SUB SWAP1 RETURN JUMPDEST CALLVALUE DUP1 ISZERO PUSH2 0xFE JUMPI PUSH1 0x0 DUP1 REVERT JUMPDEST POP PUSH2 0x119 PUSH1 0x4 DUP1 CALLDATASIZE SUB DUP2 ADD SWAP1 PUSH2 0x114 SWAP2 SWAP1 PUSH2 0xB90 JUMP JUMPDEST PUSH2 0x2E9 JUMP JUMPDEST PUSH1 0x40 MLOAD PUSH2 0x126 SWAP2 SWAP1 PUSH2 0xBFE JUMP JUMPDEST PUSH1 0x40 MLOAD DUP1 SWAP2 SUB SWAP1 RETURN JUMPDEST CALLVALUE DUP1 ISZERO PUSH2 0x13B JUMPI PUSH1 0x0 DUP1 REVERT JUMPDEST POP PUSH2 0x144 PUSH2 0x326 JUMP JUMPDEST PUSH1 0x40 MLOAD PUSH2 0x151 SWAP2 SWAP1 PUSH2 0xB44 JUMP JUMPDEST PUSH1 0x40 MLOAD DUP1 SWAP2 SUB SWAP1 RETURN JUMPDEST CALLVALUE DUP1 ISZERO PUSH2 0x166 JUMPI PUSH1 0x0 DUP1 REVERT JUMPDEST POP PUSH2 0x16F PUSH2 0x32C JUMP JUMPDEST STOP JUMPDEST CALLVALUE DUP1 ISZERO PUSH2 0x17D JUMPI PUSH1 0x0 DUP1 REVERT JUMPDEST POP PUSH2 0x198 PUSH1 0x4 DUP1 CALLDATASIZE SUB DUP2 ADD SWAP1 PUSH2 0x193 SWAP2 SWAP1 PUSH2 0xB90 JUMP JUMPDEST PUSH2 0x391 JUMP JUMPDEST PUSH1 0x40 MLOAD PUSH2 0x1A5 SWAP2 SWAP1 PUSH2 0xBFE JUMP JUMPDEST PUSH1 0x40 MLOAD DUP1 SWAP2 SUB SWAP1 RETURN JUMPDEST CALLVALUE DUP1 ISZERO PUSH2 0x1BA JUMPI PUSH1 0x0 DUP1 REVERT JUMPDEST POP PUSH2 0x1C3 PUSH2 0x3C4 JUMP JUMPDEST PUSH1 0x40 MLOAD PUSH2 0x1D0 SWAP2 SWAP1 PUSH2 0xCD7 JUMP JUMPDEST PUSH1 0x40 MLOAD DUP1 SWAP2 SUB SWAP1 RETURN JUMPDEST CALLVALUE DUP1 ISZERO PUSH2 0x1E5 JUMPI PUSH1 0x0 DUP1 REVERT JUMPDEST POP PUSH2 0x1EE PUSH2 0x452 JUMP JUMPDEST PUSH1 0x40 MLOAD PUSH2 0x1FB SWAP2 SWAP1 PUSH2 0xD1A JUMP JUMPDEST PUSH1 0x40 MLOAD DUP1 SWAP2 SUB SWAP1 RETURN JUMPDEST CALLVALUE DUP1 ISZERO PUSH2 0x210 JUMPI PUSH1 0x0 DUP1 REVERT JUMPDEST POP PUSH2 0x22B PUSH1 0x4 DUP1 CALLDATASIZE SUB DUP2 ADD SWAP1 PUSH2 0x226 SWAP2 SWAP1 PUSH2 0xD6B JUMP JUMPDEST PUSH2 0x478 JUMP JUMPDEST STOP JUMPDEST CALLVALUE DUP1 ISZERO PUSH2 0x239 JUMPI PUSH1 0x0 DUP1 REVERT JUMPDEST POP PUSH2 0x242 PUSH2 0x514 JUMP JUMPDEST STOP JUMPDEST CALLVALUE DUP1 ISZERO PUSH2 0x250 JUMPI PUSH1 0x0 DUP1 REVERT JUMPDEST POP PUSH2 0x259 PUSH2 0x70A JUMP JUMPDEST PUSH1 0x40 MLOAD PUSH2 0x266 SWAP2 SWAP1 PUSH2 0xDBA JUMP JUMPDEST PUSH1 0x40 MLOAD DUP1 SWAP2 SUB SWAP1 RETURN JUMPDEST CALLVALUE DUP1 ISZERO PUSH2 0x27B JUMPI PUSH1 0x0 DUP1 REVERT JUMPDEST POP PUSH2 0x284 PUSH2 0x7FD JUMP JUMPDEST PUSH1 0x40 MLOAD PUSH2 0x291 SWAP2 SWAP1 PUSH2 0xB44 JUMP JUMPDEST PUSH1 0x40 MLOAD DUP1 SWAP2 SUB SWAP1 RETURN JUMPDEST PUSH2 0x2A2 PUSH2 0x803 JUMP JUMPDEST STOP JUMPDEST CALLVALUE DUP1 ISZERO PUSH2 0x2B0 JUMPI PUSH1 0x0 DUP1 REVERT JUMPDEST POP PUSH2 0x2CB PUSH1 0x4 DUP1 CALLDATASIZE SUB DUP2 ADD SWAP1 PUSH2 0x2C6 SWAP2 SWAP1 PUSH2 0xB90 JUMP JUMPDEST PUSH2 0x87B JUMP JUMPDEST PUSH1 0x40 MLOAD PUSH2 0x2D8 SWAP2 SWAP1 PUSH2 0xBFE JUMP JUMPDEST PUSH1 0x40 MLOAD DUP1 SWAP2 SUB SWAP1 RETURN JUMPDEST PUSH1 0x0 SELFBALANCE SWAP1 POP SWAP1 JUMP JUMPDEST PUSH1 0x0 PUSH1 0x4 PUSH1 0x0 DUP4 DUP2 MSTORE PUSH1 0x20 ADD SWAP1 DUP2 MSTORE PUSH1 0x20 ADD PUSH1 0x0 KECCAK256 PUSH1 0x0 SWAP1 SLOAD SWAP1 PUSH2 0x100 EXP SWAP1 DIV PUSH20 0xFFFFFFFFFFFFFFFFFFFFFFFFFFFFFFFFFFFFFFFF AND SWAP1 POP SWAP2 SWAP1 POP JUMP JUMPDEST PUSH1 0x7 SLOAD DUP2 JUMP JUMPDEST PUSH1 0x1 PUSH1 0x0 SWAP1 SLOAD SWAP1 PUSH2 0x100 EXP SWAP1 DIV PUSH20 0xFFFFFFFFFFFFFFFFFFFFFFFFFFFFFFFFFFFFFFFF AND PUSH20 0xFFFFFFFFFFFFFFFFFFFFFFFFFFFFFFFFFFFFFFFF AND CALLER PUSH20 0xFFFFFFFFFFFFFFFFFFFFFFFFFFFFFFFFFFFFFFFF AND EQ PUSH2 0x386 JUMPI PUSH1 0x0 DUP1 REVERT JUMPDEST PUSH2 0x38E PUSH2 0x70A JUMP JUMPDEST POP JUMP JUMPDEST PUSH1 0x4 PUSH1 0x20 MSTORE DUP1 PUSH1 0x0 MSTORE PUSH1 0x40 PUSH1 0x0 KECCAK256 PUSH1 0x0 SWAP2 POP SLOAD SWAP1 PUSH2 0x100 EXP SWAP1 DIV PUSH20 0xFFFFFFFFFFFFFFFFFFFFFFFFFFFFFFFFFFFFFFFF AND DUP2 JUMP JUMPDEST PUSH1 0x60 PUSH1 0x2 DUP1 SLOAD DUP1 PUSH1 0x20 MUL PUSH1 0x20 ADD PUSH1 0x40 MLOAD SWAP1 DUP2 ADD PUSH1 0x40 MSTORE DUP1 SWAP3 SWAP2 SWAP1 DUP2 DUP2 MSTORE PUSH1 0x20 ADD DUP3 DUP1 SLOAD DUP1 ISZERO PUSH2 0x448 JUMPI PUSH1 0x20 MUL DUP3 ADD SWAP2 SWAP1 PUSH1 0x0 MSTORE PUSH1 0x20 PUSH1 0x0 KECCAK256 SWAP1 JUMPDEST DUP2 PUSH1 0x0 SWAP1 SLOAD SWAP1 PUSH2 0x100 EXP SWAP1 DIV PUSH20 0xFFFFFFFFFFFFFFFFFFFFFFFFFFFFFFFFFFFFFFFF AND PUSH20 0xFFFFFFFFFFFFFFFFFFFFFFFFFFFFFFFFFFFFFFFF AND DUP2 MSTORE PUSH1 0x20 ADD SWAP1 PUSH1 0x1 ADD SWAP1 DUP1 DUP4 GT PUSH2 0x3FE JUMPI JUMPDEST POP POP POP POP POP SWAP1 POP SWAP1 JUMP JUMPDEST PUSH1 0x1 PUSH1 0x0 SWAP1 SLOAD SWAP1 PUSH2 0x100 EXP SWAP1 DIV PUSH20 0xFFFFFFFFFFFFFFFFFFFFFFFFFFFFFFFFFFFFFFFF AND DUP2 JUMP JUMPDEST PUSH32 0x0 PUSH20 0xFFFFFFFFFFFFFFFFFFFFFFFFFFFFFFFFFFFFFFFF AND CALLER PUSH20 0xFFFFFFFFFFFFFFFFFFFFFFFFFFFFFFFFFFFFFFFF AND EQ PUSH2 0x506 JUMPI PUSH1 0x40 MLOAD PUSH32 0x8C379A000000000000000000000000000000000000000000000000000000000 DUP2 MSTORE PUSH1 0x4 ADD PUSH2 0x4FD SWAP1 PUSH2 0xE32 JUMP JUMPDEST PUSH1 0x40 MLOAD DUP1 SWAP2 SUB SWAP1 REVERT JUMPDEST PUSH2 0x510 DUP3 DUP3 PUSH2 0x8BA JUMP JUMPDEST POP POP JUMP JUMPDEST PUSH1 0x0 PUSH1 0x7 SLOAD GT PUSH2 0x559 JUMPI PUSH1 0x40 MLOAD PUSH32 0x8C379A000000000000000000000000000000000000000000000000000000000 DUP2 MSTORE PUSH1 0x4 ADD PUSH2 0x550 SWAP1 PUSH2 0xEC4 JUMP JUMPDEST PUSH1 0x40 MLOAD DUP1 SWAP2 SUB SWAP1 REVERT JUMPDEST PUSH1 0x0 PUSH1 0x2 DUP1 SLOAD SWAP1 POP PUSH1 0x7 SLOAD PUSH2 0x56E SWAP2 SWAP1 PUSH2 0xF13 JUMP JUMPDEST SWAP1 POP PUSH1 0x2 DUP2 DUP2 SLOAD DUP2 LT PUSH2 0x584 JUMPI PUSH2 0x583 PUSH2 0xF44 JUMP JUMPDEST JUMPDEST SWAP1 PUSH1 0x0 MSTORE PUSH1 0x20 PUSH1 0x0 KECCAK256 ADD PUSH1 0x0 SWAP1 SLOAD SWAP1 PUSH2 0x100 EXP SWAP1 DIV PUSH20 0xFFFFFFFFFFFFFFFFFFFFFFFFFFFFFFFFFFFFFFFF AND PUSH20 0xFFFFFFFFFFFFFFFFFFFFFFFFFFFFFFFFFFFFFFFF AND PUSH2 0x8FC SELFBALANCE SWAP1 DUP2 ISZERO MUL SWAP1 PUSH1 0x40 MLOAD PUSH1 0x0 PUSH1 0x40 MLOAD DUP1 DUP4 SUB DUP2 DUP6 DUP9 DUP9 CALL SWAP4 POP POP POP POP ISZERO DUP1 ISZERO PUSH2 0x5F4 JUMPI RETURNDATASIZE PUSH1 0x0 DUP1 RETURNDATACOPY RETURNDATASIZE PUSH1 0x0 REVERT JUMPDEST POP PUSH1 0x2 DUP2 DUP2 SLOAD DUP2 LT PUSH2 0x609 JUMPI PUSH2 0x608 PUSH2 0xF44 JUMP JUMPDEST JUMPDEST SWAP1 PUSH1 0x0 MSTORE PUSH1 0x20 PUSH1 0x0 KECCAK256 ADD PUSH1 0x0 SWAP1 SLOAD SWAP1 PUSH2 0x100 EXP SWAP1 DIV PUSH20 0xFFFFFFFFFFFFFFFFFFFFFFFFFFFFFFFFFFFFFFFF AND PUSH1 0x4 PUSH1 0x0 PUSH1 0x3 SLOAD DUP2 MSTORE PUSH1 0x20 ADD SWAP1 DUP2 MSTORE PUSH1 0x20 ADD PUSH1 0x0 KECCAK256 PUSH1 0x0 PUSH2 0x100 EXP DUP2 SLOAD DUP2 PUSH20 0xFFFFFFFFFFFFFFFFFFFFFFFFFFFFFFFFFFFFFFFF MUL NOT AND SWAP1 DUP4 PUSH20 0xFFFFFFFFFFFFFFFFFFFFFFFFFFFFFFFFFFFFFFFF AND MUL OR SWAP1 SSTORE POP PUSH1 0x3 PUSH1 0x0 DUP2 SLOAD DUP1 SWAP3 SWAP2 SWAP1 PUSH2 0x69A SWAP1 PUSH2 0xFA2 JUMP JUMPDEST SWAP2 SWAP1 POP SSTORE POP PUSH1 0x0 PUSH8 0xFFFFFFFFFFFFFFFF DUP2 GT ISZERO PUSH2 0x6BA JUMPI PUSH2 0x6B9 PUSH2 0xFEA JUMP JUMPDEST JUMPDEST PUSH1 0x40 MLOAD SWAP1 DUP1 DUP3 MSTORE DUP1 PUSH1 0x20 MUL PUSH1 0x20 ADD DUP3 ADD PUSH1 0x40 MSTORE DUP1 ISZERO PUSH2 0x6E8 JUMPI DUP2 PUSH1 0x20 ADD PUSH1 0x20 DUP3 MUL DUP1 CALLDATASIZE DUP4 CALLDATACOPY DUP1 DUP3 ADD SWAP2 POP POP SWAP1 POP JUMPDEST POP PUSH1 0x2 SWAP1 DUP1 MLOAD SWAP1 PUSH1 0x20 ADD SWAP1 PUSH2 0x6FE SWAP3 SWAP2 SWAP1 PUSH2 0xA84 JUMP JUMPDEST POP PUSH1 0x0 PUSH1 0x7 DUP2 SWAP1 SSTORE POP POP JUMP JUMPDEST PUSH1 0x0 PUSH1 0x6 SLOAD PUSH32 0x0 PUSH20 0xFFFFFFFFFFFFFFFFFFFFFFFFFFFFFFFFFFFFFFFF AND PUSH4 0x70A08231 ADDRESS PUSH1 0x40 MLOAD DUP3 PUSH4 0xFFFFFFFF AND PUSH1 0xE0 SHL DUP2 MSTORE PUSH1 0x4 ADD PUSH2 0x768 SWAP2 SWAP1 PUSH2 0xD1A JUMP JUMPDEST PUSH1 0x20 PUSH1 0x40 MLOAD DUP1 DUP4 SUB DUP2 DUP7 GAS STATICCALL ISZERO DUP1 ISZERO PUSH2 0x785 JUMPI RETURNDATASIZE PUSH1 0x0 DUP1 RETURNDATACOPY RETURNDATASIZE PUSH1 0x0 REVERT JUMPDEST POP POP POP POP PUSH1 0x40 MLOAD RETURNDATASIZE PUSH1 0x1F NOT PUSH1 0x1F DUP3 ADD AND DUP3 ADD DUP1 PUSH1 0x40 MSTORE POP DUP2 ADD SWAP1 PUSH2 0x7A9 SWAP2 SWAP1 PUSH2 0x102E JUMP JUMPDEST LT ISZERO PUSH2 0x7EA JUMPI PUSH1 0x40 MLOAD PUSH32 0x8C379A000000000000000000000000000000000000000000000000000000000 DUP2 MSTORE PUSH1 0x4 ADD PUSH2 0x7E1 SWAP1 PUSH2 0x10A7 JUMP JUMPDEST PUSH1 0x40 MLOAD DUP1 SWAP2 SUB SWAP1 REVERT JUMPDEST PUSH2 0x7F8 PUSH1 0x5 SLOAD PUSH1 0x6 SLOAD PUSH2 0x8C5 JUMP JUMPDEST SWAP1 POP SWAP1 JUMP JUMPDEST PUSH1 0x3 SLOAD DUP2 JUMP JUMPDEST PUSH7 0x2386F26FC10000 CALLVALUE GT PUSH2 0x816 JUMPI PUSH1 0x0 DUP1 REVERT JUMPDEST PUSH1 0x2 CALLER SWAP1 DUP1 PUSH1 0x1 DUP2 SLOAD ADD DUP1 DUP3 SSTORE DUP1 SWAP2 POP POP PUSH1 0x1 SWAP1 SUB SWAP1 PUSH1 0x0 MSTORE PUSH1 0x20 PUSH1 0x0 KECCAK256 ADD PUSH1 0x0 SWAP1 SWAP2 SWAP1 SWAP2 SWAP1 SWAP2 PUSH2 0x100 EXP DUP2 SLOAD DUP2 PUSH20 0xFFFFFFFFFFFFFFFFFFFFFFFFFFFFFFFFFFFFFFFF MUL NOT AND SWAP1 DUP4 PUSH20 0xFFFFFFFFFFFFFFFFFFFFFFFFFFFFFFFFFFFFFFFF AND MUL OR SWAP1 SSTORE POP JUMP JUMPDEST PUSH1 0x2 DUP2 DUP2 SLOAD DUP2 LT PUSH2 0x88B JUMPI PUSH1 0x0 DUP1 REVERT JUMPDEST SWAP1 PUSH1 0x0 MSTORE PUSH1 0x20 PUSH1 0x0 KECCAK256 ADD PUSH1 0x0 SWAP2 POP SLOAD SWAP1 PUSH2 0x100 EXP SWAP1 DIV PUSH20 0xFFFFFFFFFFFFFFFFFFFFFFFFFFFFFFFFFFFFFFFF AND DUP2 JUMP JUMPDEST DUP1 PUSH1 0x7 DUP2 SWAP1 SSTORE POP POP POP JUMP JUMPDEST PUSH1 0x0 PUSH32 0x0 PUSH20 0xFFFFFFFFFFFFFFFFFFFFFFFFFFFFFFFFFFFFFFFF AND PUSH4 0x4000AEA0 PUSH32 0x0 DUP5 DUP7 PUSH1 0x0 PUSH1 0x40 MLOAD PUSH1 0x20 ADD PUSH2 0x939 SWAP3 SWAP2 SWAP1 PUSH2 0x10C7 JUMP JUMPDEST PUSH1 0x40 MLOAD PUSH1 0x20 DUP2 DUP4 SUB SUB DUP2 MSTORE SWAP1 PUSH1 0x40 MSTORE PUSH1 0x40 MLOAD DUP5 PUSH4 0xFFFFFFFF AND PUSH1 0xE0 SHL DUP2 MSTORE PUSH1 0x4 ADD PUSH2 0x966 SWAP4 SWAP3 SWAP2 SWAP1 PUSH2 0x1180 JUMP JUMPDEST PUSH1 0x20 PUSH1 0x40 MLOAD DUP1 DUP4 SUB DUP2 PUSH1 0x0 DUP8 GAS CALL ISZERO DUP1 ISZERO PUSH2 0x985 JUMPI RETURNDATASIZE PUSH1 0x0 DUP1 RETURNDATACOPY RETURNDATASIZE PUSH1 0x0 REVERT JUMPDEST POP POP POP POP PUSH1 0x40 MLOAD RETURNDATASIZE PUSH1 0x1F NOT PUSH1 0x1F DUP3 ADD AND DUP3 ADD DUP1 PUSH1 0x40 MSTORE POP DUP2 ADD SWAP1 PUSH2 0x9A9 SWAP2 SWAP1 PUSH2 0x11F6 JUMP JUMPDEST POP PUSH1 0x0 PUSH2 0x9CB DUP5 PUSH1 0x0 ADDRESS PUSH1 0x0 DUP1 DUP10 DUP2 MSTORE PUSH1 0x20 ADD SWAP1 DUP2 MSTORE PUSH1 0x20 ADD PUSH1 0x0 KECCAK256 SLOAD PUSH2 0xA15 JUMP JUMPDEST SWAP1 POP PUSH1 0x1 PUSH1 0x0 DUP1 DUP7 DUP2 MSTORE PUSH1 0x20 ADD SWAP1 DUP2 MSTORE PUSH1 0x20 ADD PUSH1 0x0 KECCAK256 SLOAD PUSH2 0x9EC SWAP2 SWAP1 PUSH2 0x1223 JUMP JUMPDEST PUSH1 0x0 DUP1 DUP7 DUP2 MSTORE PUSH1 0x20 ADD SWAP1 DUP2 MSTORE PUSH1 0x20 ADD PUSH1 0x0 KECCAK256 DUP2 SWAP1 SSTORE POP PUSH2 0xA0C DUP5 DUP3 PUSH2 0xA51 JUMP JUMPDEST SWAP2 POP POP SWAP3 SWAP2 POP POP JUMP JUMPDEST PUSH1 0x0 DUP5 DUP5 DUP5 DUP5 PUSH1 0x40 MLOAD PUSH1 0x20 ADD PUSH2 0xA2E SWAP5 SWAP4 SWAP3 SWAP2 SWAP1 PUSH2 0x1257 JUMP JUMPDEST PUSH1 0x40 MLOAD PUSH1 0x20 DUP2 DUP4 SUB SUB DUP2 MSTORE SWAP1 PUSH1 0x40 MSTORE DUP1 MLOAD SWAP1 PUSH1 0x20 ADD KECCAK256 PUSH1 0x0 SHR SWAP1 POP SWAP5 SWAP4 POP POP POP POP JUMP JUMPDEST PUSH1 0x0 DUP3 DUP3 PUSH1 0x40 MLOAD PUSH1 0x20 ADD PUSH2 0xA66 SWAP3 SWAP2 SWAP1 PUSH2 0x12DE JUMP JUMPDEST PUSH1 0x40 MLOAD PUSH1 0x20 DUP2 DUP4 SUB SUB DUP2 MSTORE SWAP1 PUSH1 0x40 MSTORE DUP1 MLOAD SWAP1 PUSH1 0x20 ADD KECCAK256 SWAP1 POP SWAP3 SWAP2 POP POP JUMP JUMPDEST DUP3 DUP1 SLOAD DUP3 DUP3 SSTORE SWAP1 PUSH1 0x0 MSTORE PUSH1 0x20 PUSH1 0x0 KECCAK256 SWAP1 DUP2 ADD SWAP3 DUP3 ISZERO PUSH2 0xAFD JUMPI SWAP2 PUSH1 0x20 MUL DUP3 ADD JUMPDEST DUP3 DUP2 GT ISZERO PUSH2 0xAFC JUMPI DUP3 MLOAD DUP3 PUSH1 0x0 PUSH2 0x100 EXP DUP2 SLOAD DUP2 PUSH20 0xFFFFFFFFFFFFFFFFFFFFFFFFFFFFFFFFFFFFFFFF MUL NOT AND SWAP1 DUP4 PUSH20 0xFFFFFFFFFFFFFFFFFFFFFFFFFFFFFFFFFFFFFFFF AND MUL OR SWAP1 SSTORE POP SWAP2 PUSH1 0x20 ADD SWAP2 SWAP1 PUSH1 0x1 ADD SWAP1 PUSH2 0xAA4 JUMP JUMPDEST JUMPDEST POP SWAP1 POP PUSH2 0xB0A SWAP2 SWAP1 PUSH2 0xB0E JUMP JUMPDEST POP SWAP1 JUMP JUMPDEST JUMPDEST DUP1 DUP3 GT ISZERO PUSH2 0xB27 JUMPI PUSH1 0x0 DUP2 PUSH1 0x0 SWAP1 SSTORE POP PUSH1 0x1 ADD PUSH2 0xB0F JUMP JUMPDEST POP SWAP1 JUMP JUMPDEST PUSH1 0x0 DUP2 SWAP1 POP SWAP2 SWAP1 POP JUMP JUMPDEST PUSH2 0xB3E DUP2 PUSH2 0xB2B JUMP JUMPDEST DUP3 MSTORE POP POP JUMP JUMPDEST PUSH1 0x0 PUSH1 0x20 DUP3 ADD SWAP1 POP PUSH2 0xB59 PUSH1 0x0 DUP4 ADD DUP5 PUSH2 0xB35 JUMP JUMPDEST SWAP3 SWAP2 POP POP JUMP JUMPDEST PUSH1 0x0 DUP1 REVERT JUMPDEST PUSH2 0xB6D DUP2 PUSH2 0xB2B JUMP JUMPDEST DUP2 EQ PUSH2 0xB78 JUMPI PUSH1 0x0 DUP1 REVERT JUMPDEST POP JUMP JUMPDEST PUSH1 0x0 DUP2 CALLDATALOAD SWAP1 POP PUSH2 0xB8A DUP2 PUSH2 0xB64 JUMP JUMPDEST SWAP3 SWAP2 POP POP JUMP JUMPDEST PUSH1 0x0 PUSH1 0x20 DUP3 DUP5 SUB SLT ISZERO PUSH2 0xBA6 JUMPI PUSH2 0xBA5 PUSH2 0xB5F JUMP JUMPDEST JUMPDEST PUSH1 0x0 PUSH2 0xBB4 DUP5 DUP3 DUP6 ADD PUSH2 0xB7B JUMP JUMPDEST SWAP2 POP POP SWAP3 SWAP2 POP POP JUMP JUMPDEST PUSH1 0x0 PUSH20 0xFFFFFFFFFFFFFFFFFFFFFFFFFFFFFFFFFFFFFFFF DUP3 AND SWAP1 POP SWAP2 SWAP1 POP JUMP JUMPDEST PUSH1 0x0 PUSH2 0xBE8 DUP3 PUSH2 0xBBD JUMP JUMPDEST SWAP1 POP SWAP2 SWAP1 POP JUMP JUMPDEST PUSH2 0xBF8 DUP2 PUSH2 0xBDD JUMP JUMPDEST DUP3 MSTORE POP POP JUMP JUMPDEST PUSH1 0x0 PUSH1 0x20 DUP3 ADD SWAP1 POP PUSH2 0xC13 PUSH1 0x0 DUP4 ADD DUP5 PUSH2 0xBEF JUMP JUMPDEST SWAP3 SWAP2 POP POP JUMP JUMPDEST PUSH1 0x0 DUP2 MLOAD SWAP1 POP SWAP2 SWAP1 POP JUMP JUMPDEST PUSH1 0x0 DUP3 DUP3 MSTORE PUSH1 0x20 DUP3 ADD SWAP1 POP SWAP3 SWAP2 POP POP JUMP JUMPDEST PUSH1 0x0 DUP2 SWAP1 POP PUSH1 0x20 DUP3 ADD SWAP1 POP SWAP2 SWAP1 POP JUMP JUMPDEST PUSH2 0xC4E DUP2 PUSH2 0xBDD JUMP JUMPDEST DUP3 MSTORE POP POP JUMP JUMPDEST PUSH1 0x0 PUSH2 0xC60 DUP4 DUP4 PUSH2 0xC45 JUMP JUMPDEST PUSH1 0x20 DUP4 ADD SWAP1 POP SWAP3 SWAP2 POP POP JUMP JUMPDEST PUSH1 0x0 PUSH1 0x20 DUP3 ADD SWAP1 POP SWAP2 SWAP1 POP JUMP JUMPDEST PUSH1 0x0 PUSH2 0xC84 DUP3 PUSH2 0xC19 JUMP JUMPDEST PUSH2 0xC8E DUP2 DUP6 PUSH2 0xC24 JUMP JUMPDEST SWAP4 POP PUSH2 0xC99 DUP4 PUSH2 0xC35 JUMP JUMPDEST DUP1 PUSH1 0x0 JUMPDEST DUP4 DUP2 LT ISZERO PUSH2 0xCCA JUMPI DUP2 MLOAD PUSH2 0xCB1 DUP9 DUP3 PUSH2 0xC54 JUMP JUMPDEST SWAP8 POP PUSH2 0xCBC DUP4 PUSH2 0xC6C JUMP JUMPDEST SWAP3 POP POP PUSH1 0x1 DUP2 ADD SWAP1 POP PUSH2 0xC9D JUMP JUMPDEST POP DUP6 SWAP4 POP POP POP POP SWAP3 SWAP2 POP POP JUMP JUMPDEST PUSH1 0x0 PUSH1 0x20 DUP3 ADD SWAP1 POP DUP2 DUP2 SUB PUSH1 0x0 DUP4 ADD MSTORE PUSH2 0xCF1 DUP2 DUP5 PUSH2 0xC79 JUMP JUMPDEST SWAP1 POP SWAP3 SWAP2 POP POP JUMP JUMPDEST PUSH1 0x0 PUSH2 0xD04 DUP3 PUSH2 0xBBD JUMP JUMPDEST SWAP1 POP SWAP2 SWAP1 POP JUMP JUMPDEST PUSH2 0xD14 DUP2 PUSH2 0xCF9 JUMP JUMPDEST DUP3 MSTORE POP POP JUMP JUMPDEST PUSH1 0x0 PUSH1 0x20 DUP3 ADD SWAP1 POP PUSH2 0xD2F PUSH1 0x0 DUP4 ADD DUP5 PUSH2 0xD0B JUMP JUMPDEST SWAP3 SWAP2 POP POP JUMP JUMPDEST PUSH1 0x0 DUP2 SWAP1 POP SWAP2 SWAP1 POP JUMP JUMPDEST PUSH2 0xD48 DUP2 PUSH2 0xD35 JUMP JUMPDEST DUP2 EQ PUSH2 0xD53 JUMPI PUSH1 0x0 DUP1 REVERT JUMPDEST POP JUMP JUMPDEST PUSH1 0x0 DUP2 CALLDATALOAD SWAP1 POP PUSH2 0xD65 DUP2 PUSH2 0xD3F JUMP JUMPDEST SWAP3 SWAP2 POP POP JUMP JUMPDEST PUSH1 0x0 DUP1 PUSH1 0x40 DUP4 DUP6 SUB SLT ISZERO PUSH2 0xD82 JUMPI PUSH2 0xD81 PUSH2 0xB5F JUMP JUMPDEST JUMPDEST PUSH1 0x0 PUSH2 0xD90 DUP6 DUP3 DUP7 ADD PUSH2 0xD56 JUMP JUMPDEST SWAP3 POP POP PUSH1 0x20 PUSH2 0xDA1 DUP6 DUP3 DUP7 ADD PUSH2 0xB7B JUMP JUMPDEST SWAP2 POP POP SWAP3 POP SWAP3 SWAP1 POP JUMP JUMPDEST PUSH2 0xDB4 DUP2 PUSH2 0xD35 JUMP JUMPDEST DUP3 MSTORE POP POP JUMP JUMPDEST PUSH1 0x0 PUSH1 0x20 DUP3 ADD SWAP1 POP PUSH2 0xDCF PUSH1 0x0 DUP4 ADD DUP5 PUSH2 0xDAB JUMP JUMPDEST SWAP3 SWAP2 POP POP JUMP JUMPDEST PUSH1 0x0 DUP3 DUP3 MSTORE PUSH1 0x20 DUP3 ADD SWAP1 POP SWAP3 SWAP2 POP POP JUMP JUMPDEST PUSH32 0x4F6E6C7920565246436F6F7264696E61746F722063616E2066756C66696C6C00 PUSH1 0x0 DUP3 ADD MSTORE POP JUMP JUMPDEST PUSH1 0x0 PUSH2 0xE1C PUSH1 0x1F DUP4 PUSH2 0xDD5 JUMP JUMPDEST SWAP2 POP PUSH2 0xE27 DUP3 PUSH2 0xDE6 JUMP JUMPDEST PUSH1 0x20 DUP3 ADD SWAP1 POP SWAP2 SWAP1 POP JUMP JUMPDEST PUSH1 0x0 PUSH1 0x20 DUP3 ADD SWAP1 POP DUP2 DUP2 SUB PUSH1 0x0 DUP4 ADD MSTORE PUSH2 0xE4B DUP2 PUSH2 0xE0F JUMP JUMPDEST SWAP1 POP SWAP2 SWAP1 POP JUMP JUMPDEST PUSH32 0x4D7573742068617665206120736F75726365206F662072616E646F6D6E657373 PUSH1 0x0 DUP3 ADD MSTORE PUSH32 0x206265666F72652063686F6F73696E672077696E6E6572000000000000000000 PUSH1 0x20 DUP3 ADD MSTORE POP JUMP JUMPDEST PUSH1 0x0 PUSH2 0xEAE PUSH1 0x37 DUP4 PUSH2 0xDD5 JUMP JUMPDEST SWAP2 POP PUSH2 0xEB9 DUP3 PUSH2 0xE52 JUMP JUMPDEST PUSH1 0x40 DUP3 ADD SWAP1 POP SWAP2 SWAP1 POP JUMP JUMPDEST PUSH1 0x0 PUSH1 0x20 DUP3 ADD SWAP1 POP DUP2 DUP2 SUB PUSH1 0x0 DUP4 ADD MSTORE PUSH2 0xEDD DUP2 PUSH2 0xEA1 JUMP JUMPDEST SWAP1 POP SWAP2 SWAP1 POP JUMP JUMPDEST PUSH32 0x4E487B7100000000000000000000000000000000000000000000000000000000 PUSH1 0x0 MSTORE PUSH1 0x12 PUSH1 0x4 MSTORE PUSH1 0x24 PUSH1 0x0 REVERT JUMPDEST PUSH1 0x0 PUSH2 0xF1E DUP3 PUSH2 0xB2B JUMP JUMPDEST SWAP2 POP PUSH2 0xF29 DUP4 PUSH2 0xB2B JUMP JUMPDEST SWAP3 POP DUP3 PUSH2 0xF39 JUMPI PUSH2 0xF38 PUSH2 0xEE4 JUMP JUMPDEST JUMPDEST DUP3 DUP3 MOD SWAP1 POP SWAP3 SWAP2 POP POP JUMP JUMPDEST PUSH32 0x4E487B7100000000000000000000000000000000000000000000000000000000 PUSH1 0x0 MSTORE PUSH1 0x32 PUSH1 0x4 MSTORE PUSH1 0x24 PUSH1 0x0 REVERT JUMPDEST PUSH32 0x4E487B7100000000000000000000000000000000000000000000000000000000 PUSH1 0x0 MSTORE PUSH1 0x11 PUSH1 0x4 MSTORE PUSH1 0x24 PUSH1 0x0 REVERT JUMPDEST PUSH1 0x0 PUSH2 0xFAD DUP3 PUSH2 0xB2B JUMP JUMPDEST SWAP2 POP PUSH32 0xFFFFFFFFFFFFFFFFFFFFFFFFFFFFFFFFFFFFFFFFFFFFFFFFFFFFFFFFFFFFFFFF DUP3 SUB PUSH2 0xFDF JUMPI PUSH2 0xFDE PUSH2 0xF73 JUMP JUMPDEST JUMPDEST PUSH1 0x1 DUP3 ADD SWAP1 POP SWAP2 SWAP1 POP JUMP JUMPDEST PUSH32 0x4E487B7100000000000000000000000000000000000000000000000000000000 PUSH1 0x0 MSTORE PUSH1 0x41 PUSH1 0x4 MSTORE PUSH1 0x24 PUSH1 0x0 REVERT JUMPDEST PUSH1 0x0 DUP2 MLOAD SWAP1 POP PUSH2 0x1028 DUP2 PUSH2 0xB64 JUMP JUMPDEST SWAP3 SWAP2 POP POP JUMP JUMPDEST PUSH1 0x0 PUSH1 0x20 DUP3 DUP5 SUB SLT ISZERO PUSH2 0x1044 JUMPI PUSH2 0x1043 PUSH2 0xB5F JUMP JUMPDEST JUMPDEST PUSH1 0x0 PUSH2 0x1052 DUP5 DUP3 DUP6 ADD PUSH2 0x1019 JUMP JUMPDEST SWAP2 POP POP SWAP3 SWAP2 POP POP JUMP JUMPDEST PUSH32 0x4E6F7420656E6F756768204C494E4B20696E20636F6E74726163740000000000 PUSH1 0x0 DUP3 ADD MSTORE POP JUMP JUMPDEST PUSH1 0x0 PUSH2 0x1091 PUSH1 0x1B DUP4 PUSH2 0xDD5 JUMP JUMPDEST SWAP2 POP PUSH2 0x109C DUP3 PUSH2 0x105B JUMP JUMPDEST PUSH1 0x20 DUP3 ADD SWAP1 POP SWAP2 SWAP1 POP JUMP JUMPDEST PUSH1 0x0 PUSH1 0x20 DUP3 ADD SWAP1 POP DUP2 DUP2 SUB PUSH1 0x0 DUP4 ADD MSTORE PUSH2 0x10C0 DUP2 PUSH2 0x1084 JUMP JUMPDEST SWAP1 POP SWAP2 SWAP1 POP JUMP JUMPDEST PUSH1 0x0 PUSH1 0x40 DUP3 ADD SWAP1 POP PUSH2 0x10DC PUSH1 0x0 DUP4 ADD DUP6 PUSH2 0xDAB JUMP JUMPDEST PUSH2 0x10E9 PUSH1 0x20 DUP4 ADD DUP5 PUSH2 0xB35 JUMP JUMPDEST SWAP4 SWAP3 POP POP POP JUMP JUMPDEST PUSH1 0x0 DUP2 MLOAD SWAP1 POP SWAP2 SWAP1 POP JUMP JUMPDEST PUSH1 0x0 DUP3 DUP3 MSTORE PUSH1 0x20 DUP3 ADD SWAP1 POP SWAP3 SWAP2 POP POP JUMP JUMPDEST PUSH1 0x0 JUMPDEST DUP4 DUP2 LT ISZERO PUSH2 0x112A JUMPI DUP1 DUP3 ADD MLOAD DUP2 DUP5 ADD MSTORE PUSH1 0x20 DUP2 ADD SWAP1 POP PUSH2 0x110F JUMP JUMPDEST PUSH1 0x0 DUP5 DUP5 ADD MSTORE POP POP POP POP JUMP JUMPDEST PUSH1 0x0 PUSH1 0x1F NOT PUSH1 0x1F DUP4 ADD AND SWAP1 POP SWAP2 SWAP1 POP JUMP JUMPDEST PUSH1 0x0 PUSH2 0x1152 DUP3 PUSH2 0x10F0 JUMP JUMPDEST PUSH2 0x115C DUP2 DUP6 PUSH2 0x10FB JUMP JUMPDEST SWAP4 POP PUSH2 0x116C DUP2 DUP6 PUSH1 0x20 DUP7 ADD PUSH2 0x110C JUMP JUMPDEST PUSH2 0x1175 DUP2 PUSH2 0x1136 JUMP JUMPDEST DUP5 ADD SWAP2 POP POP SWAP3 SWAP2 POP POP JUMP JUMPDEST PUSH1 0x0 PUSH1 0x60 DUP3 ADD SWAP1 POP PUSH2 0x1195 PUSH1 0x0 DUP4 ADD DUP7 PUSH2 0xD0B JUMP JUMPDEST PUSH2 0x11A2 PUSH1 0x20 DUP4 ADD DUP6 PUSH2 0xB35 JUMP JUMPDEST DUP2 DUP2 SUB PUSH1 0x40 DUP4 ADD MSTORE PUSH2 0x11B4 DUP2 DUP5 PUSH2 0x1147 JUMP JUMPDEST SWAP1 POP SWAP5 SWAP4 POP POP POP POP JUMP JUMPDEST PUSH1 0x0 DUP2 ISZERO ISZERO SWAP1 POP SWAP2 SWAP1 POP JUMP JUMPDEST PUSH2 0x11D3 DUP2 PUSH2 0x11BE JUMP JUMPDEST DUP2 EQ PUSH2 0x11DE JUMPI PUSH1 0x0 DUP1 REVERT JUMPDEST POP JUMP JUMPDEST PUSH1 0x0 DUP2 MLOAD SWAP1 POP PUSH2 0x11F0 DUP2 PUSH2 0x11CA JUMP JUMPDEST SWAP3 SWAP2 POP POP JUMP JUMPDEST PUSH1 0x0 PUSH1 0x20 DUP3 DUP5 SUB SLT ISZERO PUSH2 0x120C JUMPI PUSH2 0x120B PUSH2 0xB5F JUMP JUMPDEST JUMPDEST PUSH1 0x0 PUSH2 0x121A DUP5 DUP3 DUP6 ADD PUSH2 0x11E1 JUMP JUMPDEST SWAP2 POP POP SWAP3 SWAP2 POP POP JUMP JUMPDEST PUSH1 0x0 PUSH2 0x122E DUP3 PUSH2 0xB2B JUMP JUMPDEST SWAP2 POP PUSH2 0x1239 DUP4 PUSH2 0xB2B JUMP JUMPDEST SWAP3 POP DUP3 DUP3 ADD SWAP1 POP DUP1 DUP3 GT ISZERO PUSH2 0x1251 JUMPI PUSH2 0x1250 PUSH2 0xF73 JUMP JUMPDEST JUMPDEST SWAP3 SWAP2 POP POP JUMP JUMPDEST PUSH1 0x0 PUSH1 0x80 DUP3 ADD SWAP1 POP PUSH2 0x126C PUSH1 0x0 DUP4 ADD DUP8 PUSH2 0xDAB JUMP JUMPDEST PUSH2 0x1279 PUSH1 0x20 DUP4 ADD DUP7 PUSH2 0xB35 JUMP JUMPDEST PUSH2 0x1286 PUSH1 0x40 DUP4 ADD DUP6 PUSH2 0xD0B JUMP JUMPDEST PUSH2 0x1293 PUSH1 0x60 DUP4 ADD DUP5 PUSH2 0xB35 JUMP JUMPDEST SWAP6 SWAP5 POP POP POP POP POP JUMP JUMPDEST PUSH1 0x0 DUP2 SWAP1 POP SWAP2 SWAP1 POP JUMP JUMPDEST PUSH2 0x12B7 PUSH2 0x12B2 DUP3 PUSH2 0xD35 JUMP JUMPDEST PUSH2 0x129C JUMP JUMPDEST DUP3 MSTORE POP POP JUMP JUMPDEST PUSH1 0x0 DUP2 SWAP1 POP SWAP2 SWAP1 POP JUMP JUMPDEST PUSH2 0x12D8 PUSH2 0x12D3 DUP3 PUSH2 0xB2B JUMP JUMPDEST PUSH2 0x12BD JUMP JUMPDEST DUP3 MSTORE POP POP JUMP JUMPDEST PUSH1 0x0 PUSH2 0x12EA DUP3 DUP6 PUSH2 0x12A6 JUMP JUMPDEST PUSH1 0x20 DUP3 ADD SWAP2 POP PUSH2 0x12FA DUP3 DUP5 PUSH2 0x12C7 JUMP JUMPDEST PUSH1 0x20 DUP3 ADD SWAP2 POP DUP2 SWAP1 POP SWAP4 SWAP3 POP POP POP JUMP INVALID LOG2 PUSH5 0x6970667358 0x22 SLT KECCAK256 DUP2 0x4B 0xAC PUSH22 0xA50FF859E95FCFB5A2C3A36B92FAD98EBA4184FAF33D DUP14 0xCA PUSH10 0xC3281F64736F6C634300 ADDMOD GT STOP CALLER "
				},
				"gasEstimates": {
					"creation": {
						"codeDepositCost": "985600",
						"executionCost": "infinite",
						"totalCost": "infinite"
					},
					"external": {
						"enter()": "48786",
						"getBalance()": "340",
						"getPlayers()": "infinite",
						"getRandomNumber()": "infinite",
						"getWinnerByLottery(uint256)": "2888",
						"lotteryHistory(uint256)": "2928",
						"lotteryId()": "2473",
						"owner()": "2537",
						"payWinner()": "infinite",
						"pickWinner()": "infinite",
						"players(uint256)": "5044",
						"randomResult()": "2474",
						"rawFulfillRandomness(bytes32,uint256)": "infinite"
					},
					"internal": {
						"fulfillRandomness(bytes32,uint256)": "22127"
					}
				},
				"methodIdentifiers": {
					"enter()": "e97dcb62",
					"getBalance()": "12065fe0",
					"getPlayers()": "8b5b9ccc",
					"getRandomNumber()": "dbdff2c1",
					"getWinnerByLottery(uint256)": "281d098d",
					"lotteryHistory(uint256)": "6d6fe230",
					"lotteryId()": "e580f47b",
					"owner()": "8da5cb5b",
					"payWinner()": "be71248a",
					"pickWinner()": "5d495aea",
					"players(uint256)": "f71d96cb",
					"randomResult()": "42619f66",
					"rawFulfillRandomness(bytes32,uint256)": "94985ddd"
				}
			},
			"storageLayout": {
				"storage": [
					{
						"astId": 79,
						"contract": "apps/Lottery/lottery-dapp/blockchain/contracts/Lottery.sol:Lottery",
						"label": "nonces",
						"offset": 0,
						"slot": "0",
						"type": "t_mapping(t_bytes32,t_uint256)"
					},
					{
						"astId": 319,
						"contract": "apps/Lottery/lottery-dapp/blockchain/contracts/Lottery.sol:Lottery",
						"label": "owner",
						"offset": 0,
						"slot": "1",
						"type": "t_address"
					},
					{
						"astId": 322,
						"contract": "apps/Lottery/lottery-dapp/blockchain/contracts/Lottery.sol:Lottery",
						"label": "players",
						"offset": 0,
						"slot": "2",
						"type": "t_array(t_address_payable)dyn_storage"
					},
					{
						"astId": 324,
						"contract": "apps/Lottery/lottery-dapp/blockchain/contracts/Lottery.sol:Lottery",
						"label": "lotteryId",
						"offset": 0,
						"slot": "3",
						"type": "t_uint256"
					},
					{
						"astId": 328,
						"contract": "apps/Lottery/lottery-dapp/blockchain/contracts/Lottery.sol:Lottery",
						"label": "lotteryHistory",
						"offset": 0,
						"slot": "4",
						"type": "t_mapping(t_uint256,t_address_payable)"
					},
					{
						"astId": 330,
						"contract": "apps/Lottery/lottery-dapp/blockchain/contracts/Lottery.sol:Lottery",
						"label": "keyHash",
						"offset": 0,
						"slot": "5",
						"type": "t_bytes32"
					},
					{
						"astId": 332,
						"contract": "apps/Lottery/lottery-dapp/blockchain/contracts/Lottery.sol:Lottery",
						"label": "fee",
						"offset": 0,
						"slot": "6",
						"type": "t_uint256"
					},
					{
						"astId": 334,
						"contract": "apps/Lottery/lottery-dapp/blockchain/contracts/Lottery.sol:Lottery",
						"label": "randomResult",
						"offset": 0,
						"slot": "7",
						"type": "t_uint256"
					}
				],
				"types": {
					"t_address": {
						"encoding": "inplace",
						"label": "address",
						"numberOfBytes": "20"
					},
					"t_address_payable": {
						"encoding": "inplace",
						"label": "address payable",
						"numberOfBytes": "20"
					},
					"t_array(t_address_payable)dyn_storage": {
						"base": "t_address_payable",
						"encoding": "dynamic_array",
						"label": "address payable[]",
						"numberOfBytes": "32"
					},
					"t_bytes32": {
						"encoding": "inplace",
						"label": "bytes32",
						"numberOfBytes": "32"
					},
					"t_mapping(t_bytes32,t_uint256)": {
						"encoding": "mapping",
						"key": "t_bytes32",
						"label": "mapping(bytes32 => uint256)",
						"numberOfBytes": "32",
						"value": "t_uint256"
					},
					"t_mapping(t_uint256,t_address_payable)": {
						"encoding": "mapping",
						"key": "t_uint256",
						"label": "mapping(uint256 => address payable)",
						"numberOfBytes": "32",
						"value": "t_address_payable"
					},
					"t_uint256": {
						"encoding": "inplace",
						"label": "uint256",
						"numberOfBytes": "32"
					}
				}
			},
			"userdoc": {
				"kind": "user",
				"methods": {},
				"version": 1
			}
		}
	}
}